:020000040800F2
:10000000B806002029020008C70E0008530E000899
:10001000C50E00081F040008F910000800000000C9
:10002000000000000000000000000000CB0E0008EF
:100030002104000800000000C90E0008CD0E0008D1
:10004000430200084302000843020008430200087C
:10005000430200084302000843020008430200086C
:10006000430200084302000843020008430200085C
:10007000430200084302000843020008430200084C
:10008000430200084302000843020008430200083C
:10009000430200084302000843020008430200082C
:1000A000430200084302000843020008430200081C
:1000B000430200084302000843020008430200080C
:1000C00043020008430200084302000843020008FC
:1000D00043020008430200084302000843020008EC
:1000E00043020008430200084302000843020008DC
:1000F00043020008430200084302000843020008CC
:1001000043020008430200084302000843020008BB
:1001100043020008430200084302000843020008AB
:10012000430200084302000843020008430200089B
:10013000430200084302000843020008430200088B
:10014000430200084302000843020008430200087B
:10015000430200084302000843020008430200086B
:10016000430200084302000843020008430200085B
:100170004302000843020008430200080000000098
:10018000430200084302000800F002F800F03CF8C7
:100190000AA090E8000C82448344AAF10107DA45E2
:1001A00001D100F031F8AFF2090EBAE80F0013F0F8
:1001B000010F18BFFB1A43F001031847E00F0000BE
:1001C00000100000103A24BF78C878C1FAD852074E
:1001D00024BF30C830C144BF04680C6070470000C1
:1001E0000023002400250026103A28BF78C1FBD840
:1001F000520728BF30C148BF0B6070471FB500F0E1
:10020000BBFF1FBD10B510BD00F0CFF81146FFF7C2
:10021000F5FF00F083FF00F0EDF803B4FFF7F2FF05
:1002200003BC00F0F5F80000094880470948004782
:10023000FEE7FEE7FEE7FEE7FEE7FEE7FEE7FEE796
:10024000FEE7FEE704480549054A064B70470000F3
:10025000650F000889010008B8000020B8060020DA
:10026000B8020020B802002053EA020C00F06980B6
:100270002DE9F04B4FF00006002B1FBFB3FA83F5BA
:1002800003FA05F424FA05F65E4012BF1643B2FAEB
:1002900082F502FA05F4C5F120051EBF22FA05FC1D
:1002A00044EA0C04203556EA044C4FEA144418BFC3
:1002B000641C4FF000084FF00009904271EB030CF2
:1002C00039D3002919BFB1FA81F701FA07F6B0FA5C
:1002D00080F700FA07F6C7F120071EBF20FA07FCD7
:1002E00046EA0C062037B6FBF4FCA7EB0507103FE7
:1002F00007F01F0BCBF120060CFA0BFB2CFA06F6CD
:1003000044BFB3460026202FA4BF5E464FF0000B2B
:100310005BEA060C08BF4FF0010B19EB0B09ABFBB6
:10032000027C48EB0608C01B06FB02CC0BFB03CC8F
:1003300071EB0C01C1E70B46024641464846BDE859
:10034000F08B13B54FF000004FF00001AFF30080C9
:10035000BDE81C4070474FF0000200B513469446BC
:100360009646203922BFA0E80C50A0E80C50B1F10D
:100370002001BFF4F7AF090728BFA0E80C5048BF21
:100380000CC05DF804EB890028BF40F8042B08BFBF
:10039000704748BF20F8022B11F0804F18BF00F8BB
:1003A000012B7047704770477047754600F02CF876
:1003B000AE4605006946534620F00700854618B052
:1003C00020B5FFF73FFFBDE820404FF000064FF09B
:1003D00000074FF000084FF0000B21F00701AC467A
:1003E000ACE8C009ACE8C009ACE8C009ACE8C00999
:1003F0008D46704710B50446AFF300802046BDE837
:100400001040FFF70ABF000000487047540000206A
:1004100001491820ABBEFEE7260002007047FEE748
:100420007047000070B5044600F00CF90546601CEA
:1004300002D004480078044400F004F9401BA042B4
:10044000FAD370BD000000202DE9F84FDFF8BCA101
:10045000002201250AF1040B03264FF00F090BF1CE
:10046000040E00BF0B6805FA02F42340A34270D1CA
:100470000F7907F00307012F01D0022F16D18768EB
:100480004FEA420806FA08FC27EA0C07D1F80CC02C
:100490000CFA08FC4CEA070CC0F808C04768A743F0
:1004A0000C79C4F3001494403C4344600C79E44359
:1004B000A4070AD0C4684FEA420C06FA0CF7BC4302
:1004C0008F6807FA0CF72743C7600C7904F0030420
:1004D000022C12D1D40800EB840CDCF82040570722
:1004E000FF0E09FA07F824EA0804D1F8108008FA88
:1004F00007F848EA0408CCF8208004684FEA420C68
:1005000006FA0CF7BC430F7907F0030707FA0CF75C
:10051000274307604C6814F4403F70D03C4C276878
:1005200047F480472760246822F0030704F48044DE
:100530000094384C07EB040CDCF8084897074FEAA6
:10054000177809FA08F7BC43334FB84202D10027A5
:1005500024E054E0314FB84201D101271EE0304F72
:10056000B84201D1022719E02E4FB84201D103272A
:1005700014E02D4FB84201D104270FE02B4FB842B1
:1005800001D105270AE02A4FB84201D1062705E02C
:10059000284FB84201D1072700E0082707FA08F7DB
:1005A0002743CCF80878DAF800405746D1F804C061
:1005B0009C435FEACC3C00D51C433C60DBF8004028
:1005C0005F46D1F804C09C435FEA8C3C00D51C43D5
:1005D0003C60DEF800407746D1F804C09C435FEAF7
:1005E000CC2C00D51C433C60084F0C373C68D1F83C
:1005F00004C09C435FEA8C2C00D51C433C60521C19
:10060000102AFFF42FAFBDE8F88F0000003C014036
:100610004438024000300140000002400004024023
:1006200000080240000C024000100240001402408A
:1006300000180240001C02400AB1816170470904A1
:10064000FBE70000014880687047000000000020C0
:1006500002488168027811448160704700000020E0
:100660000B4810B5016841F400710160016841F464
:1006700080610160016841F480710160032000F035
:1006800061F80F2000F006F800F024F8002010BDFB
:10069000003C024070B50D4D04464FF47A71287845
:1006A000B1FBF0F00A490968B1FBF0F000F0FCFA88
:1006B00048B9102C07D200222146501E00F022F823
:1006C00000206C6070BD012070BD000000000020A3
:1006D0000C0000200A4808B5016841F4804101601F
:1006E000006800F4804000900548001F016841F058
:1006F00080510160006800F08050009008BD00004B
:1007000044380240F0B40E4B1B680C46C3F302237E
:10071000C3F10705042D00D90425191D072901D2AD
:10072000002300E0DB1E012606FA05F1491E2140E8
:1007300099409E40761E16403143F0BC00F0DDBC6F
:100740000CED00E0064900F0070208684FF6FF03D1
:10075000184040EA0220034A104308607047000036
:100760000CED00E00000FA052DE9F0470E4605000B
:1007700065D0DFF81481D8F80000F7B200F0070068
:10078000B04207D288F80070D8F8000000F00700E7
:10079000B04254D128683D4C810712D5400703D59B
:1007A000206840F4E05020602878000703D52068D6
:1007B00040F4604020602068A96820F0F000084301
:1007C00020602878C0072DD0304968680839012892
:1007D00012D0022813D0032811D0096889070029F4
:1007E0002DDA216821F0030101432160FFF72AFF80
:1007F000814641F2883A0EE009688903EFE709680B
:100800008901ECE7FFF71EFFA0EB0901514502D972
:100810000320BDE8F0872068696800F00C00B0EBA9
:10082000810FEFD1D8F80010404601F00701B14226
:1008300007D90770006800F00700B04201D001201E
:10084000E7E72878400705D52068E96820F4E050FC
:10085000084320602878000706D52068296920F41D
:10086000604040EAC100206000F038F82168084A82
:10087000C1F30311515CC84006490860064800688E
:10088000FFF708FF0020C4E7003C024008380240A0
:10089000821100080C0000200400002004480549D3
:1008A00000680968044AC1F38221515CC84070475E
:1008B0000C00002008380240921100080448054945
:1008C00000680968044AC1F34231515CC84070476E
:1008D0000C0000200838024092110008154810B59D
:1008E000006810F00C02144813D04110042A0FD0F5
:1008F000082A0ED10F4C241F2268236802F03F0201
:100900005B0207D52068C0F38810A0FB010106E058
:10091000084610BD2168C1F38811A1FB0001002326
:10092000FFF7A2FC2168C1F30141491C4900B0FB5B
:10093000F1F010BD083802400024F4002DE9F84F12
:1009400004006ED02078DFF84C93C007A9F10405AD
:100950004AD009F104000168C1F38101012908D0DE
:100960000068C0F3810002280AD1D9F800004002D3
:1009700006D52868800337D560680028E1D033E0C9
:100980006068B0F5803F10D0B0F5A02F286810D077
:1009900020F480302860286820F480202860606877
:1009A000A8B1FFF74FFE06460DE0286840F48030FE
:1009B000F4E740F480202860F7E700BFFFF742FE2D
:1009C000801B642873D828688003F7D50CE0FFF7F4
:1009D00039FE064605E000BFFFF734FE801B6428A1
:1009E000F0D828688003F7D42078DFF8AC8280073D
:1009F0004FF0000A3ED5A748001D016811F00C0F0A
:100A000008D00068C0F3810002280BD1D9F800009B
:100A1000400207D42868800716D5E068012800D175
:100A200012E033E1E068B8B10120C8F80000FFF738
:100A300009FE064605E000BFFFF704FE801B022802
:100A4000C0D828688007F7D52868216920F0F80009
:100A500040EAC10028600DE0C8F800A0FFF7F2FDF1
:100A6000064604E0FFF7EEFD801B02281FD8286829
:100A70008007F7D42078000722D5864F8748616920
:100A8000703771B101210160FFF7DCFD064604E01B
:100A9000FFF7D8FD801B022809D838688007F7D5F2
:100AA0000EE0C0F800A0FFF7CDFD064605E082E0AD
:100AB000FFF7C8FD801B02287DD838688007F7D46F
:100AC0002078400768D5DFF8CCB100270BF13C0B4C
:100AD000DBF80000C0000BD4DBF8001041F08051BF
:100AE000CBF80010DBF80000012700F080500090E8
:100AF0006B4E3068C00510D4306840F480703060B0
:100B0000FFF7A0FD009005E0FFF79CFD0099401A5B
:100B1000022850D83068C005F6D55E4EA0686C3605
:100B200001280FD00528306810D020F00100306077
:100B3000306820F004003060A068B8B1FFF782FD93
:100B400000900FE0306840F00100F4E740F004004E
:100B50003060F7E7FFF776FD0099411A41F28830DF
:100B6000814266D830688007F4D50EE0FFF76AFD51
:100B7000009007E0FFF766FD0099411A41F28830C6
:100B8000814256D830688007F4D42FB1DBF80010CA
:100B900021F08051CBF80010A069C8B33D49091D70
:100BA0000968C1F3810102294AD00228504607D0C2
:100BB000C8F8600000E03CE0FFF744FD04463BE07D
:100BC0004746C8F86000FFF73DFD064605E000BF58
:100BD000FFF738FD801B02282BD828688001F7D446
:100BE000D4E907010843A16A2E4A490802EB0141F2
:100BF000626A41EA8211084394F82C1040EA0161CC
:100C0000C9F8001001203866FFF71CFD044606E015
:100C10003EE000BFFFF716FD001B022809D8286838
:100C20008001F7D534E000BFFFF70CFD001B022860
:100C300002D90320BDE8F88F28688001F4D427E0AA
:100C40000128F7D0D9F80000E26900F48001914250
:100C50001CD1226A00F03F01914217D147F6C071C2
:100C6000626A0140B1EB821F10D1A26A4FF0FF33DC
:100C700000F4403103EB5202B1EB024F06D194F87D
:100C80002C1000F07060B0EB016F01D00120D1E7B3
:100C90000020CFE70438024000004742800E474260
:100CA000007000400000FFFF10B5401EB0F1807FD3
:100CB00001D3012010BD4FF0E02460610F216017C7
:100CC00000F01BFA0020A06107202061002010BD69
:100CD00070B5040004D094F83D00002510B106E082
:100CE000012070BD84F83C50204600F023F82420F9
:100CF00084F83D002068C16821F40051C16020469D
:100D000000F038F92068016921F490410161206800
:100D1000416921F02A0141612068C16841F4005114
:100D2000C1602564202084F83D0084F83E00002046
:100D300070BD000010B586B0044614216846FFF768
:100D40000AFB14492068884221D113480021026817
:100D500042F010020260006800F0100005900E489A
:100D60001438026842F001020260006800F00100DD
:100D700005904FF4C06000900220CDE901010320EE
:100D800003900720049069460448FFF75DFB06B016
:100D900010BD000000100140443802400000024035
:100DA0002DE9F843044690F83D001F4616460D46CF
:100DB00020284CD1C5B1BEB194F83C00012846D0E2
:100DC000012084F83C004FF00008C4F84080212046
:100DD00084F83D00FFF736FCA6848146E684A068CF
:100DE000B0F5805F03D004E00120BDE8F8832069FE
:100DF00028B12E465FF0000584F83C800EE0002606
:100E0000FAE78021204600F03BF9A0B9AEB116F810
:100E1000010B21684860E08C401EE084E08C4B466A
:100E20004FF0000200970028EBD14FF04001204620
:100E300000F026F930B10320D7E735F8020BC0F3F4
:100E40000800E6E7202084F83D000020CDE70220DE
:100E5000CBE7FEE770B586B014216846FFF77BFA52
:100E600016480024016841F080010160016801F02A
:100E700080010591016841F008010160016801F0FD
:100E800008010591016841F00101016000680C4E04
:100E900000F001004FF480550590002229463046AD
:100EA000FFF7CAFB01200095CDE9010469463046F1
:100EB0000394FFF7C9FA06B070BD00003038024055
:100EC000000C0240FEE7FEE770477047FFF7C0BB2B
:100ED00030B593B030216846FFF73DFA14210CA8D5
:100EE000FFF739FA1D480025016841F08051016083
:100EF000006800F0805011901948016841F4804169
:100F000001600068022400F48040119001200090EC
:100F1000000401908001CDE9064008AA0420A82120
:100F200082E813000B906846FFF708FD08B172B61F
:100F3000FEE70CA90F2081E831004FF4A0500F907C
:100F40004FF48050109005210CA8FFF70DFC0028ED
:100F500001D072B6FEE713B030BD00004038024049
:100F6000007000400248016841F470010160704760
:100F700088ED00E070B5044600680169E26821F47C
:100F80004051114301612169A068E2690843616928
:100F9000114308432168CA6849F20C639A4302432B
:100FA000CA6020684169A26921F44071114341611E
:100FB00031492068884202D03049884202D1FFF787
:100FC0007DFC01E0FFF76AFCE2690023192164253A
:100FD0003226B2F5004F626828D0A0FB0101930FC2
:100FE0009200FFF741F90146B0FBF5F06FF01802EF
:100FF000504301EB800006EB0010B0FBF5F000F071
:10100000F002B1FBF5F002EB0012B1FBF5F06FF06E
:101010001803584301EB800006EB0010B0FBF5F01D
:1010200000F00F0021681044886070BDA0FB010132
:1010300092185B41FFF718F90146B0FBF5F0020189
:10104000B1FBF5F06FF01803584301EB800006EB9D
:10105000C000B0FBF5F000F0F80002EB4002B1FB7D
:10106000F5F0584301EB800006EBC000B0FBF5F053
:1010700000F00700D6E70000001001400014014016
:101080002DE9F041984617460E460446069D27E096
:10109000681C25D02DB1FFF7D5FAA0EB0800A842B7
:1010A0001ED920680C3050E8001F21F4D07140E8B0
:1010B0000012002AF5D12068143050E8001F21F0FA
:1010C000010140E80012002AF5D1202084F83D00FB
:1010D00084F83E00002084F83C000320BDE8F08145
:1010E0002068006836EA000004D00020B842CFD063
:1010F0000020F3E70120F9E7FEE70907090E0028C1
:1011000004DB00F1E02080F80014704700F00F00CD
:1011100000F1E02080F8141D70470000FFF7A0FAEE
:10112000FFF7D6FEFFF796FE10480F490C2201602C
:101130004FF4E131416000218160C160C0E90412D7
:101140008161C161FFF7C4FD08B172B6FEE74FF4DB
:101150007A740A23072206A10448FFF721FE2046DD
:10116000FFF760F9F5E700000010014010000020D3
:1011700048656C6C6F0D0A004FF04070E1EE100A8C
:101180007047000000000000000001020304060791
:10119000080900000000010203040000BC1100085F
:1011A0000000002010000000C4010008CC1100085D
:1011B00010000020A8060000E00100080100000067
:0C11C00010000000000000000024F400FB
:040000050800018965
:00000001FF
