:020000040800F2
:100000006008002039020008671900087718000806
:10001000651900083F08000845230008000000009B
:100020000000000000000000000000001521000892
:100030004108000800000000A51F00081721000863
:10004000530200085302000853020008530200083C
:10005000530200085302000853020008530200082C
:10006000530200085302000853020008530200081C
:10007000530200085302000853020008530200080C
:1000800053020008530200085302000853020008FC
:1000900053020008530200085302000853020008EC
:1000A00053020008530200085302000853020008DC
:1000B00053020008530200085302000853020008CC
:1000C00053020008530200085302000853020008BC
:1000D00053020008530200085302000853020008AC
:1000E000530200085302000853020008530200089C
:1000F000530200085302000853020008530200088C
:10010000530200085302000853020008530200087B
:10011000530200085302000853020008530200086B
:10012000530200085302000853020008530200085B
:10013000530200085302000853020008530200084B
:10014000530200085302000853020008530200083B
:10015000530200085302000853020008530200082B
:10016000530200085302000853020008530200081B
:100170005302000853020008530200080000000068
:10018000530200085302000800F002F800F044F89F
:100190000AA090E8000C82448344AAF10107DA45E2
:1001A00001D100F039F8AFF2090EBAE80F0013F0F0
:1001B000010F18BFFB1A43F0010318478C2C0000F5
:1001C000AC2C0000103A24BF78C878C1FAD8520786
:1001D00024BF30C830C144BF04680C6070470000C1
:1001E0000023002400250026103A28BF78C1FBD840
:1001F000520728BF30C148BF0B607047642900F028
:10020000EF80782900F02881002070471FB502F0A8
:1002100079FD1FBD10B510BD00F0D7FA1146FFF7EC
:10022000F5FF02F0A7F800F0F5FA03B4FFF7F2FFCC
:1002300003BC00F0FDFA0000094880470948004768
:10024000FEE7FEE7FEE7FEE7FEE7FEE7FEE7FEE786
:10025000FEE7FEE704480549054A064B70470000E3
:10026000B121000889010008600200206008002018
:10027000600400206004002053EA020C00F0698052
:100280002DE9F04B4FF00006002B1FBFB3FA83F5AA
:1002900003FA05F424FA05F65E4012BF1643B2FADB
:1002A00082F502FA05F4C5F120051EBF22FA05FC0D
:1002B00044EA0C04203556EA044C4FEA144418BFB3
:1002C000641C4FF000084FF00009904271EB030CE2
:1002D00039D3002919BFB1FA81F701FA07F6B0FA4C
:1002E00080F700FA07F6C7F120071EBF20FA07FCC7
:1002F00046EA0C062037B6FBF4FCA7EB0507103FD7
:1003000007F01F0BCBF120060CFA0BFB2CFA06F6BC
:1003100044BFB3460026202FA4BF5E464FF0000B1B
:100320005BEA060C08BF4FF0010B19EB0B09ABFBA6
:10033000027C48EB0608C01B06FB02CC0BFB03CC7F
:1003400071EB0C01C1E70B46024641464846BDE849
:10035000F08B13B54FF000004FF00001AFF30080B9
:10036000BDE81C40704700000FB41CB5074B06AA3F
:100370007B4469460090059800F00FFA002069461A
:1003800000F01EFA1CBC5DF814FB00004D040000D8
:1003900070B5044685690068C10601D5302600E0C5
:1003A0002026C00707D070BDD4E901213046904710
:1003B000206A401C20626D1EF6D570BD70B50446E3
:1003C00085690078C00707D170BDD4E901212020DC
:1003D0009047206A401C20626D1EF6D570BD00005B
:1003E0002DE9F0410646002410687529314616A50E
:1003F00010D0AFF30080002802DA404213A507E0D6
:1004000031688A0701D512A502E0490704D511A574
:10041000012401E0AFF3008000210A2206F1240745
:1004200009E0B0FBF2FCB0FBF2F302FB1C00303041
:1004300078541846491C0028F3D123462A463046F2
:10044000BDE8F04100F04BB9000000002D000000B5
:100450002B0000002000000070B504460D46214628
:100460001068AFF300802188090502D50F4A7A444D
:1004700002E00E4A7A440E32002104F1240305E022
:1004800000F00F060009965D5E54491C0028F7D164
:1004900020780023000704D5702D02D009B1022373
:1004A00011322046BDE8704000F019B9C1280000A3
:1004B0002DE9F05F894604464FF0000ADFF824B1C9
:1004C000FB44C0F820A02046E168884700287DD082
:1004D000252806D0D4E901219047206A401C2062DB
:1004E000F1E700255F462046E16888472028064658
:1004F00007DB312E05D2B81910F8200C08B10543DE
:10050000F1E7A80701D525F00405C4F81CA00027D1
:10051000C4F818A02A2E09D0304601F024FF38B3C1
:1005200004EB8708303EC8F8186019E059F8041B3E
:10053000204604EB87029161E1688847012F064657
:1005400018D1E069002820DA25F020051DE0D8F850
:10055000180000EB800006EB40003038C8F81800A7
:100560002046E1688847064601F0FDFE0028EED1EE
:10057000012F0AD02E2E08D12046E16888477F1C23
:100580000646022F45F02005C4DBA069002803DAE7
:10059000404245F00105A061E80701D025F01005B3
:1005A000A6B1A6F14100192802D8203645F400650D
:1005B0004A463146204625604D46FFF71FFE60B192
:1005C000012807D0ED1D25F0070000E007E000F14D
:1005D000080978E705F1040975E730467AE7206AEB
:1005E000BDE8F09F9728000010B5431C02E010F80A
:1005F000011B71B18107FAD14FF0013202C88C1A88
:100600008C4314EAC211F9D0C01A0A0603D0C01EE6
:1006100010BDC01A10BD0A0401D0801E10BD090211
:10062000FCD0401E10BD10B5203AC0F00B80B1E8E0
:100630001850203AA0E81850B1E81850A0E8185017
:10064000BFF4F5AF5FEA027C24BFB1E81850A0E820
:10065000185044BF18C918C0BDE810405FEA827C3A
:1006600024BF51F8043B40F8043B08BF7047D20751
:1006700028BF31F8023B48BF11F8012B28BF20F8F2
:10068000023B48BF00F8012B70474FF0000200B555
:10069000134694469646203922BFA0E80C50A0E8A5
:1006A0000C50B1F12001BFF4F7AF090728BFA0E853
:1006B0000C5048BF0CC05DF804EB890028BF40F81F
:1006C000042B08BF704748BF20F8022B11F0804F61
:1006D00018BF00F8012B70477047704770472DE92D
:1006E000F0470D4699469246044600F124080168F9
:1006F000880604D5E06921F01001216000E00120A6
:10070000A84201DD471B00E00027A1697A1902EB2E
:100710000900081AA0612078C00602D42046FFF71D
:1007200037FE002608E0D4E901211AF806009047B8
:10073000206A401C761C20624E45F4DB2078C006FF
:100740000AD52046FFF724FE06E0D4E90121302037
:100750009047206A401C2062381EA7F10107F4DC94
:1007600007E0D4E9012118F805009047206A401CF1
:100770002062281EA5F10105F3DC2046FFF71EFECE
:100780002078000602D50220BDE8F0870120FBE7B3
:1007900001694A1C02610878704700B58FB0CDE945
:1007A00001310021059105497944CDE90310114635
:1007B0006846FFF77DFE0FB000BD0000E5FFFFFFBC
:1007C0000A6802F8010B0A607047754600F02CF8C1
:1007D000AE4605006946534620F00700854618B02E
:1007E00020B5FFF737FDBDE820404FF000064FF081
:1007F00000074FF000084FF0000B21F00701AC4656
:10080000ACE8C009ACE8C009ACE8C009ACE8C00974
:100810008D46704710B50446AFF300802046BDE812
:100820001040FFF702BD00000048704700020020A2
:1008300001491820ABBEFEE7260002007047FEE724
:100840007047000070B5044600F014F90546601CBE
:1008500002D004480078044400F00CF9401BA04288
:10086000FAD370BD400000202DE9F84FDFF8BCA19D
:10087000002201250AF1040B03264FF00F090BF1AA
:10088000040E00BF0B6805FA02F42340A34270D1A6
:100890000F7907F00307012F01D0022F16D18768C7
:1008A0004FEA420806FA08FC27EA0C07D1F80CC008
:1008B0000CFA08FC4CEA070CC0F808C04768A743CC
:1008C0000C79C4F3001494403C4344600C79E44335
:1008D000A4070AD0C4684FEA420C06FA0CF7BC43DE
:1008E0008F6807FA0CF72743C7600C7904F00304FC
:1008F000022C12D1D40800EB840CDCF820405707FE
:10090000FF0E09FA07F824EA0804D1F8108008FA63
:1009100007F848EA0408CCF8208004684FEA420C43
:1009200006FA0CF7BC430F7907F0030707FA0CF738
:10093000274307604C6814F4403F70D03C4C276854
:1009400047F480472760246822F0030704F48044BA
:100950000094384C07EB040CDCF8084897074FEA82
:10096000177809FA08F7BC43334FB84202D1002781
:1009700024E054E0314FB84201D101271EE0304F4E
:10098000B84201D1022719E02E4FB84201D1032706
:1009900014E02D4FB84201D104270FE02B4FB8428D
:1009A00001D105270AE02A4FB84201D1062705E008
:1009B000284FB84201D1072700E0082707FA08F7B7
:1009C0002743CCF80878DAF800405746D1F804C03D
:1009D0009C435FEACC3C00D51C433C60DBF8004004
:1009E0005F46D1F804C09C435FEA8C3C00D51C43B1
:1009F0003C60DEF800407746D1F804C09C435FEAD3
:100A0000CC2C00D51C433C60084F0C373C68D1F817
:100A100004C09C435FEA8C2C00D51C433C60521CF4
:100A2000102AFFF42FAFBDE8F88F0000003C014012
:100A300044380240003001400000024000040240FF
:100A400000080240000C0240001002400014024066
:100A500000180240001C0240426921EA02030A40D9
:100A600043EA0241816170470AB18161704709041C
:100A7000FBE700000148806870470000400000204C
:100A8000024881680278114481607047400000206C
:100A90000B4810B5016841F400710160016841F430
:100AA00080610160016841F480710160032000F001
:100AB00061F80F2000F006F800F024F8002010BDC7
:100AC000003C024070B50D4D04464FF47A71287811
:100AD000B1FBF0F00A490968B1FBF0F000F0DFFD6E
:100AE00048B9102C07D200222146501E00F022F8EF
:100AF00000206C6070BD012070BD0000400000202F
:100B00004C0000200A4808B5016841F480410160AA
:100B1000006800F4804000900548001F016841F023
:100B200080510160006800F08050009008BD000016
:100B300044380240F0B40E4B1B680C46C3F302234A
:100B4000C3F10705042D00D90425191D072901D279
:100B5000002300E0DB1E012606FA05F1491E2140B4
:100B600099409E40761E16403143F0BC01F0EBBB2D
:100B70000CED00E0064900F0070208684FF6FF039D
:100B8000184040EA0220034A104308607047000002
:100B90000CED00E00000FA052DE9F0470E460500D7
:100BA00065D0DFF81481D8F80000F7B200F0070034
:100BB000B04207D288F80070D8F8000000F00700B3
:100BC000B04254D128683D4C810712D5400703D567
:100BD000206840F4E05020602878000703D52068A2
:100BE00040F4604020602068A96820F0F0000843CD
:100BF00020602878C0072DD030496868083901285E
:100C000012D0022813D0032811D0096889070029BF
:100C10002DDA216821F0030101432160FFF72AFF4B
:100C2000814641F2883A0EE009688903EFE70968D6
:100C30008901ECE7FFF71EFFA0EB0901514502D93E
:100C40000320BDE8F0872068696800F00C00B0EB75
:100C5000810FEFD1D8F80010404601F00701B142F2
:100C600007D90770006800F00700B04201D00120EA
:100C7000E7E72878400705D52068E96820F4E050C8
:100C8000084320602878000706D52068296920F4E9
:100C9000604040EAC100206000F038F82168084A4E
:100CA000C1F30311515CC84006490860064800685A
:100CB000FFF708FF0020C4E7003C0240083802406C
:100CC0001B2D00084C00002044000020044805496A
:100CD00000680968044AC1F38221515CC84070472A
:100CE0004C000020083802402B2D0008044805491C
:100CF00000680968044AC1F34231515CC84070473A
:100D00004C000020083802402B2D0008154810B573
:100D1000006810F00C02144813D04110042A0FD0C0
:100D2000082A0ED10F4C241F2268236802F03F02CC
:100D30005B0207D52068C0F38810A0FB010106E024
:100D4000084610BD2168C1F38811A1FB00010023F2
:100D5000FFF792FA2168C1F30141491C4900B0FB39
:100D6000F1F010BD083802400024F4002DE9F84FDE
:100D700004006ED02078DFF84C93C007A9F1040579
:100D80004AD009F104000168C1F38101012908D0AA
:100D90000068C0F3810002280AD1D9F8000040029F
:100DA00006D52868800337D560680028E1D033E095
:100DB0006068B0F5803F10D0B0F5A02F286810D043
:100DC00020F480302860286820F480202860606843
:100DD000A8B1FFF74FFE06460DE0286840F48030CA
:100DE000F4E740F480202860F7E700BFFFF742FEF9
:100DF000801B642873D828688003F7D50CE0FFF7C0
:100E000039FE064605E000BFFFF734FE801B64286C
:100E1000F0D828688003F7D42078DFF8AC82800708
:100E20004FF0000A3ED5A748001D016811F00C0FD5
:100E300008D00068C0F3810002280BD1D9F8000067
:100E4000400207D42868800716D5E068012800D141
:100E500012E033E1E068B8B10120C8F80000FFF704
:100E600009FE064605E000BFFFF704FE801B0228CE
:100E7000C0D828688007F7D52868216920F0F800D5
:100E800040EAC10028600DE0C8F800A0FFF7F2FDBD
:100E9000064604E0FFF7EEFD801B02281FD82868F5
:100EA0008007F7D42078000722D5864F87486169EC
:100EB000703771B101210160FFF7DCFD064604E0E7
:100EC000FFF7D8FD801B022809D838688007F7D5BE
:100ED0000EE0C0F800A0FFF7CDFD064605E082E079
:100EE000FFF7C8FD801B02287DD838688007F7D43B
:100EF0002078400768D5DFF8CCB100270BF13C0B18
:100F0000DBF80000C0000BD4DBF8001041F080518A
:100F1000CBF80010DBF80000012700F080500090B3
:100F20006B4E3068C00510D4306840F4807030607B
:100F3000FFF7A0FD009005E0FFF79CFD0099401A27
:100F4000022850D83068C005F6D55E4EA0686C36D1
:100F500001280FD00528306810D020F00100306043
:100F6000306820F004003060A068B8B1FFF782FD5F
:100F700000900FE0306840F00100F4E740F004001A
:100F80003060F7E7FFF776FD0099411A41F28830AB
:100F9000814266D830688007F4D50EE0FFF76AFD1D
:100FA000009007E0FFF766FD0099411A41F2883092
:100FB000814256D830688007F4D42FB1DBF8001096
:100FC00021F08051CBF80010A069C8B33D49091D3C
:100FD0000968C1F3810102294AD00228504607D08E
:100FE000C8F8600000E03CE0FFF744FD04463BE049
:100FF0004746C8F86000FFF73DFD064605E000BF24
:10100000FFF738FD801B02282BD828688001F7D411
:10101000D4E907010843A16A2E4A490802EB0141BD
:10102000626A41EA8211084394F82C1040EA016197
:10103000C9F8001001203866FFF71CFD044606E0E1
:101040003EE000BFFFF716FD001B022809D8286804
:101050008001F7D534E000BFFFF70CFD001B02282C
:1010600002D90320BDE8F88F28688001F4D427E076
:101070000128F7D0D9F80000E26900F4800191421C
:101080001CD1226A00F03F01914217D147F6C0718E
:10109000626A0140B1EB821F10D1A26A4FF0FF33A8
:1010A00000F4403103EB5202B1EB024F06D194F849
:1010B0002C1000F07060B0EB016F01D00120D1E77F
:1010C0000020CFE70438024000004742800E47422C
:1010D000007000400000FFFF70B5040009D0606A96
:1010E000002540B125616561A56294F8510040B1C9
:1010F0000CE0012070BD6068B0F5827FF4D0E5613E
:10110000F2E784F85050204600F044F8022084F8BA
:1011100051002068016821F040010160A088218908
:1011200000F4827001F404410843A18901F40061D4
:101130000843217C01F002010843217D01F00101F7
:101140000843218B01F400710843217F01F038012D
:10115000084394F8201001F080010843218D01F428
:101160000051084321680860A069042101EA104089
:1011700094F8241001F010010843216848602068A9
:10118000C16921F40061C1616565012084F85100E5
:10119000002070BD10B586B0044614216846FFF7E4
:1011A00074FA13492068884220D11248002102684D
:1011B00042F480520260006800F4805005900D48AF
:1011C0001438026842F001020260006800F0010079
:1011D0000590E02000900220CDE90101032003905A
:1011E0000520049069460448FFF73EFB06B010BD99
:1011F0000030014044380240000002402DE9F84F21
:10120000044640680025984616460F464FF0040BEA
:10121000B0F5827F01D1A06888B194F85000012810
:1012200018D0012084F85000FFF724FC814694F880
:1012300051004FF0000A01280ED0022582E084F808
:1012400051B013460A462046CDF8008000F036F92A
:10125000BDE8F88F0220FBE7002F72D0002E70D07F
:1012600084F851B0C4F854A0A763A687E687C4F8F1
:1012700030A0A4F834A0A4F836A0C4F840A0C4F864
:1012800044A0A068B0F5004F09D12068016821F0A2
:10129000400101602068016821F4804101602068FC
:1012A0000168490603D4016841F040010160E0682B
:1012B000D8B139E020688168C90709D0007BA16BEB
:1012C0000870A06B401CA063E08F401EE0870CE01C
:1012D000FFF7D0FBA0EB0901414503D3B8F1FF3F75
:1012E00003D036E0B8F1000F33D0E08F0028E1D111
:1012F0001DE020688168C90709D0C068A16B08801B
:10130000A06B801CA063E08F401EE0870CE0FFF71D
:10131000B1FBA0EB0901414503D3B8F1FF3F03D076
:1013200017E0B8F1000F14D0E08F0028E1D14A4651
:101330004146204600F037FE08B120206065606D10
:1013400000B10125012084F8510084F850A02846FE
:101350007EE70325F6E72DE9F84F044690F85000A4
:1013600000271D461646894601280DD04FF0010B77
:1013700084F850B0FFF77EFB804694F85100BA46DF
:10138000012804D0022793E00220BDE8F88FB9F1CC
:10139000000F73D0002E71D0032084F85100C4F8E0
:1013A00054A0C4F83090A686E686C4F838A0A4F805
:1013B0003CA0A4F83EA0C4F844A0C4F840A0A06893
:1013C000B0F5004F09D12068016821F040010160AB
:1013D0002068016841F48041016020680168490685
:1013E00003D4016841F040010160E068B0F5006F8E
:1013F000606803D030B3012E24D041E008B1012E43
:101400001CD1206B21680088C86006E020688168D4
:10141000890709D5216B0988C160206B801C206376
:10142000E08E401EE08609E0FFF724FBA0EB0800F9
:10143000A84202D3681C01D031E07DB3E08E0028C1
:10144000E4D120E0206B21680078087306E0206872
:101450008168890709D5216B09780173206B401CCD
:101460002063E08E401EE0860AE0FFF703FBA0EB5E
:101470000800A84203D3681C02D010E017E06DB149
:10148000E08E0028E3D142462946204600F0BAFD0E
:1014900008B120206065A06818B106E0FFE70327C7
:1014A00006E02068C16880680090606D00B1012787
:1014B00084F851B084F850A0384666E72DE9F84F1B
:1014C000044690F8500000270A9E1D4692468B461F
:1014D0004FF0010901280ED0012084F85000FFF7D9
:1014E000C9FA804694F85100616801280CD0B1F522
:1014F000827F07D102E00220BDE8F88FA16809B918
:10150000042801D00227C2E0BBF1000F27D0BAF1B6
:10151000000F24D01DB394F85100042802D00520F8
:1015200084F8510000206065C4F838A0E587A587DD
:10153000C4F830B0E586A586206460642068016840
:10154000490603D4016841F040010160E068B0F54C
:10155000006F606805D0E8B3012D46D07FE0012719
:1015600095E008B1012D39D1206B21680088C86051
:10157000206B801C2063E08E401EE0862EE02068F9
:10158000816889070FD5E18E69B1B9F1010F0AD1E0
:10159000216B0988C160206B801C2063E08E401E97
:1015A000E0864FF0000920688168C9070CD0E18F00
:1015B00051B1C068A16B0880A06B801CA063E08F54
:1015C000401EE0874FF00109FFF754FAA0EB080036
:1015D000B04200E009E001D3701C50D1E08E002839
:1015E000CDD1E08F0028CAD13FE0206B2168007880
:1015F0000873206B401C2063E08E401EE0862EE0C6
:101600002068816889070FD5E18E69B1B9F1010FB2
:101610000AD1216B09780173206B401C2063E08E96
:10162000401EE0864FF0000920688168C9070CD091
:10163000E18F51B1C068A16B0870A06B401CA06322
:10164000E08F401EE0874FF00109FFF713FAA0EB8F
:101650000800B04202D3701C01D010E07EB1E08ED1
:101660000028CDD1E08F0028CAD14246314620461D
:1016700000F0C8FC28B101272020606507E003279F
:1016800005E0A06818B92068C16880680090012052
:1016900084F85100002084F8500038462CE710B53B
:1016A000401EB0F1807F01D3012010BD4FF0E02437
:1016B00060610F21601700F046FE0020A061072046
:1016C0002061002010BD70B5040004D094F83D00E6
:1016D000002510B106E0012070BD84F83C50204682
:1016E00000F022F8242084F83D002068C16821F42D
:1016F0000051C160204600F063FD2068016921F4BB
:10170000904101612068416921F02A01416120680E
:10171000C16841F40051C1602564202084F83D0077
:1017200084F83E00002070BDF0B587B00446142157
:101730006846FEF7AAFF1F4F236800221E490224B5
:10174000032507261D48BB4213D11B4B14331F68CA
:1017500047F010071F601B6803F0100305930B6828
:1017600043F001030B60096801F001010591690272
:1017700015E0134FBB421AD10F4B10331F6847F4CB
:1017800000371F601B6803F4003305930B6843F0B8
:1017900001030B60096801F0010105910C21CDE9FD
:1017A000001402AB694683E86400FFF75DF807B0F8
:1017B000F0BD00000010014030380240000002403F
:1017C000004400402DE9F843044690F83D001F46D0
:1017D00016460D4620284CD1C5B1BEB194F83C0048
:1017E000012846D0012084F83C004FF00008C4F8DE
:1017F0004080212084F83D00FFF73CF9A684814613
:10180000E684A068B0F5805F03D004E00120BDE865
:10181000F883206928B12E465FF0000584F83C80EB
:101820000EE00026FAE78021204600F04FFDA0B927
:10183000AEB116F8010B21684860E08C401EE084D0
:10184000E08C4B464FF0000200970028EBD14FF0A0
:101850004001204600F03AFD30B10320D7E735F8CB
:10186000020BC0F30800E6E7202084F83D000020CA
:10187000CDE70220CBE7FEE72DE9F04186B0142149
:101880006846FEF702FF23480024016841F080010A
:101890000160016801F080010591016841F00101DA
:1018A0000160016801F001010591016841F0040146
:1018B0000160016801F004010591016841F008012F
:1018C00001600068144F00F00800059000223021EC
:1018D0003846FFF7C9F8DFF844804FF4405600223D
:1018E00031464046FFF7C0F8302000900125CDE991
:1018F0000154694638460394FEF7B6FF0096CDE9D9
:101900000154694640460394FEF7AEFF06B0BDE8B9
:10191000F08100003038024000080240000C024014
:101920000F4810B50D4901604FF4827141600021EC
:101930008160C1604FF400720161C0E9051220228C
:10194000C0E90721416281620A21C162FFF7C4FB3D
:10195000002801D072B6FEE710BD00000030014043
:10196000EC000020FEE7FEE708B5002000F00CF9CF
:1019700050208DF8000073208DF8010064230222AE
:1019800069460348FFF7E7FC012000F0FDF808BDB9
:10199000500000200449054A0968B1FBF2F14143B7
:1019A000491EFDD2704700004C000020C0C62D002B
:1019B0000020AFF3008070B5054600F053F90446EF
:1019C000C0F380166EB115B1C4F3420028704021F7
:1019D000072000F0B1FAA00603D52021072000F06F
:1019E000ABFA304670BD00000FB47CB514460D460E
:1019F0000646582209A95D48FEF715FE5C4B0120FA
:101A0000DE60DD801C8100F0BFF8002000F0B2F83D
:101A10000520FEF717FF0821002000F08DFA3F2176
:101A2000012000F089FA0321022000F085FA032149
:101A3000084600F081FA0321042000F07DFA02211B
:101A4000052000F079FA0F21062000F075FA0E212A
:101A5000072000F071FA0021082000F06DFA002143
:101A6000092000F069FAE7248DF803408DF8024060
:101A70008DF801408DF804408DF80040052269463C
:101A80000A2000F071FAC2208DF803008DF80200E0
:101A90008DF801008DF804008DF8000005226946DC
:101AA0000B2000F061FAC3210C2000F045FAC4219C
:101AB0000D2000F041FAC5210E2000F03DFAC621AC
:101AC0000F2000F039FA8DF803408DF802408DF8B0
:101AD00001408DF804408DF8004005226946102031
:101AE00000F042FA0021112000F026FA0021122015
:101AF00000F022FA0021132000F01EFA0021142029
:101B000000F01AFA0021152000F016FA0021162024
:101B100000F012FAFFF728FF00211C2000F00CFA59
:101B200000211D2000F008FA00F004FD0F210846F6
:101B300000F0C0F9032000F097F9012000F066F9E9
:101B4000022000F048F900F029F8202000F0AAF95E
:101B500000F036F94C2000F052F900F07FF800F068
:101B600079F800F0AFF87CBC5DF814FB5000002061
:101B700000000020020003480189C06800D0012253
:101B8000FEF772BF0000002002000348C188C06851
:101B900000D00122FEF768BF0000002010B51D2014
:101BA00000F0D0F820F004011D2000F0C5F900215C
:101BB0001C2000F0C1F902490020C87010BD0000CF
:101BC0000000002010B51D2000F0BCF840F0060118
:101BD0001D2000F0B1F91D2000F0B4F848B9FFF75E
:101BE000C3FE1D2000F0AEF840F006011D2000F0FD
:101BF000A3F91C2000F0A6F840F00301BDE8104056
:101C00001C2000F099B9000010B51D2000F09AF8D2
:101C100040F004011D2000F08FF91D2000F092F823
:101C200048B9FFF7A1FE1D2000F08CF840F0040138
:101C30001D2000F081F91C2000F084F840F03F01E5
:101C40001C2000F079F902490120C87010BD000085
:101C500000000020FF21E22000F06EB9FF21E1200A
:101C600000F06AB9072000F06DB800007FB50400ED
:101C70001248134D06D0062C1ED8022C07D2005D48
:101C8000052206E0DDE90212C5E90412F7E7005D6E
:101C9000012202A900F068F90848A978801F005DB8
:101CA00000F04AF9022000F04DF80121A14008435C
:101CB000C1B2022000F040F97FBD0000142D0008E1
:101CC0000000002010B5002000F03CF820F00201D8
:101CD000BDE81040002000F02FB910B500F010F85A
:101CE000172000F02FF800F00104FFF7B3FF602089
:101CF00000F028F80CB1012010BD002010BD00003C
:101D000038B505460D4884788C4200D90C46002031
:101D1000FFF73AFF61208DF8000064230122694635
:101D20000748FFF718FB6423224629460448FFF7BB
:101D300065FA0120FFF728FF38BD000000000020F1
:101D40005000002038B504460020FFF71DFF04F0C6
:101D50001F008DF800006423012269460848FFF740
:101D6000FAFA6423012206480DF10101FFF746FA51
:101D70009DF801400120FFF707FF204638BD000015
:101D800050000020F8B5044615460E460020FFF727
:101D9000FBFE04F01F008DF8000064230122694659
:101DA0000648FFF7D8FA64232A4631460348FFF76E
:101DB00025FA0120FFF7E8FEF8BD000050000020E2
:101DC0007021072000F0B8B808B13F2100E00021E1
:101DD000012000F0B1B810B504460020FFF7B2FFB3
:101DE00020F00C011CB1012C06D041F00C01BDE823
:101DF0001040002000F0A0B841F00801F7E77F286C
:101E000000D37F200146052000F096B82DE9F0416F
:101E100007464FF000080620FFF794FF114D0026FB
:101E200020F028046E71022F0ED0012F10D06E7199
:101E30002146062000F080F80620FFF783FFA0422D
:101E40000BD14FF0010809E06E7144F02004EFE778
:101E50000120687144F00804EAE76E714046BDE86D
:101E6000F08100000000002010B504460620FFF7B6
:101E700069FF20F00601032C0DD0022C05D0012CA7
:101E800006D054B1042C06D007E041F0040104E070
:101E900041F0020101E041F00601BDE810400620DA
:101EA00000F04AB8202800D32020014988707047EC
:101EB0000000002000F00F0060F31F11042000F06C
:101EC0003BB8000010B50020FFF73CFF40F00301D5
:101ED000002000F031F80B49D1E90401084305D096
:101EE0000849052210310A2000F03EF8FFF7B6FE3F
:101EF000FFF7B0FE0120FFF73DFEBDE81040962041
:101F0000FFF748BD0000002070B506460C46202AA9
:101F100000D3202215460020FFF736FE06F007000A
:101F200040F0A8002A46214600F01EF8BDE87040A7
:101F30000120FFF729BE000038B505460C460020F9
:101F4000FFF722FE45F020008DF800008DF80140DB
:101F50006423022269460348FFF7FDF90120FFF7D9
:101F600013FE38BD50000020F8B5044615460E4655
:101F70000020FFF709FE44F020008DF800006423E4
:101F8000012269460648FFF7E6F964232A463146EE
:101F90000348FFF7E0F90120FFF7F6FDF8BD000068
:101FA000500000207047F8B5044640684FF4827333
:101FB000984221D1A0684FF48065B0F5004F01D060
:101FC000A8420AD12068066826F0400606606068CC
:101FD000984211D1A068A8420ED000920B46002270
:101FE0008021204600F03AF8002804D0606D40F0CF
:101FF000200060650320F8BD00920B4600220121FD
:10200000EFE7000038B504461248134B0068B0FBF8
:10201000F3F04FF47A73584300906068B0F5827F14
:102020000DD10B46009200228021204600F016F8C8
:1020300070B1606D40F020006065032038BD0098ED
:1020400030B1401E009020688068C0430006F6D57D
:10205000002038BD4C00002000366E012DE9F84309
:102060001E46914688460446089DFEF703FD401B28
:10207000351AFEF7FFFC074625480068C0F3CB3051
:10208000684338E0701C37D0FEF7F4FCC01BA84250
:1020900003D215B1009860B32CE02068416821F0AC
:1020A000E00141606068B0F5827F0BD1A068B0F5B7
:1020B000004F02D0B0F5806F04D12068016821F094
:1020C00040010160A06AB0F5005F09D12068016895
:1020D00021F4005101602068016841F40051016061
:1020E000012084F85100002084F850000320BDE84E
:1020F000F8830025401E00902068816838EA0100BE
:1021000004D000214945BDD10020F0E70121F9E7C5
:102110004C0000207047FEF7B3BC000030B593B010
:1021200030216846FEF7B1FA14210CA8FEF7ADFA8B
:102130001D480025016841F080510160006800F0F1
:10214000805011901948016841F480410160006895
:10215000022400F48040119001200390102004908C
:10216000009406940820CDE90750A820CDE9090481
:1021700004200B906846FEF7F9FD08B172B6FEE741
:102180000CA90F2081E831004FF4A0500F904FF4BC
:102190008050109005210CA8FEF7FEFC002801D00D
:1021A00072B6FEE713B030BD403802400070004008
:1021B0000248016841F470010160704788ED00E059
:1021C00070B5044600680169E26821F4405111438A
:1021D00001612169A068E26908436169114308430C
:1021E0002168CA6849F20C639A430243CA602068B6
:1021F0004169A26921F4407111434161314920686C
:10220000884202D03049884202D1FEF76FFD01E0DA
:10221000FEF75CFDE2690023192164253226B2F540
:10222000004F626828D0A0FB0101930F9200FEF7D7
:1022300023F80146B0FBF5F06FF01802504301EBB4
:10224000800006EB0010B0FBF5F000F0F002B1FBEF
:10225000F5F002EB0012B1FBF5F06FF018035843F4
:1022600001EB800006EB0010B0FBF5F000F00F0072
:1022700021681044886070BDA0FB010192185B4189
:10228000FDF7FAFF0146B0FBF5F00201B1FBF5F0F6
:102290006FF01803584301EB800006EBC000B0FB61
:1022A000F5F000F0F80002EB4002B1FBF5F0584306
:1022B00001EB800006EBC000B0FBF5F000F007007A
:1022C000D6E7000000100140001401402DE9F04164
:1022D000984617460E460446069D27E0681C25D002
:1022E0002DB1FEF7C7FBA0EB0800A8421ED920685D
:1022F0000C3050E8001F21F4D07140E80012002A91
:10230000F5D12068143050E8001F21F0010140E8A9
:102310000012002AF5D1202084F83D0084F83E0008
:10232000002084F83C000320BDE8F08120680068AC
:1023300036EA000004D00020B842CFD00020F3E7F6
:102340000120F9E7FEE70907090E002804DB00F188
:10235000E02080F80014704700F00F0000F1E0204A
:1023600080F8141D704730380A2801D201207047C8
:1023700000207047ACB0FEF78BFBFFF7CFFEFFF7F6
:102380007BFAFFF7CDFA60485E494FF4E13600254D
:102390000160C0E901650C27C560C0E9045785618B
:1023A000C561FFF790F908B172B6FEE7564C574881
:1023B00044342060C4E90165E560C4E90457A561BF
:1023C0002046E561FFF77FF908B172B6FEE74E4996
:1023D0003622583915A8FEF726F94B4D583DE88EA0
:1023E000ADF88A00A86B2390A88FADF89000E88F15
:1023F000ADF89200112205F1400125A8FEF713F96E
:1024000095F851008DF8A500686D2A90542216A900
:102410006846FEF708F9102220213D48159BFFF77A
:10242000E3FA262205F19C010DA8FEF7FCF8E08CEA
:10243000ADF85A0005F18000416C1791B0F84800E2
:10244000ADF86000E08DADF86200206B19900922B4
:1024500005F1D0011AA8FEF7E6F894F83D008DF8D2
:10246000710094F83E008DF87200206C1D903422AB
:1024700011A96846FEF7D7F80DF1340C9CE80F005F
:1024800000F04CF800F056F80120FFF79DFC3420D6
:10249000FFF7B5FC2020FFF705FD1E48D0E900231B
:1024A0000120FFF7E3FBFFF7AFFBFFF78BFBFFF725
:1024B00009FD05F1E0044FF48057DFF85C800D253D
:1024C0005FF00A06FFF774FA0028FBD03946404651
:1024D000FEF7C2FA0C4820218830FFF7FEFB0D49B9
:1024E000202208310120FFF70FFD074984F8205012
:1024F000883184F8216064232222A1F14400FFF78F
:1025000061F9DFE700100140440100200044004071
:102510000008024018000020000C02400FB44422C2
:1025200010B502A90248FEF77EF810BC5DF814FB56
:10253000A800002010B5A0B0F4A104A8FDF714FF76
:1025400004A8FEF751F882B20A2304A9FC48FFF759
:1025500039F90020FFF7F6FB01077AD5400701D5CE
:10256000F8A100E0FEA104A8FDF7FEFE04A8FEF716
:102570003BF882B20A2304A9F148FFF723F90120AE
:10258000FFF7E0FBC0F34014C0F30013C0F3C00238
:10259000C0F380018DE81E0000F00102C0F340038B
:1025A000F64904A8FDF7E0FE04A8FEF71DF882B284
:1025B0000A2304A9E248FFF705F90220FFF7C2FB4E
:1025C000C0F34014C0F30013C0F3C002C0F3800195
:1025D0008DE81E0000F00102C0F34003E84904A8A2
:1025E000FDF7C2FE04A8FDF7FFFF82B20A2304A98B
:1025F000D348FFF7E7F80320FFF7A4FB00F003023E
:10260000E0A104A8921CFDF7AFFE04A8FDF7ECFFC3
:1026100082B20A2304A9CA48FFF7D4F80520FFF7BD
:1026200091FB00F07F02DEA104A8FDF79DFE04A847
:10263000FDF7DAFF82B20A2304A9C148FFF7C2F806
:102640000620FFF77FFB0446000704D5D9A103E06D
:10265000FFE7DEA187E7E2A104A8FDF785FE04A855
:10266000FDF7C2FF82B20A2304A9B548FFF7AAF812
:10267000032010EA540006D0012806D0022806D014
:10268000032806D009E0DCA104E0E0A102E0E4A117
:1026900000E0E8A104A8FDF767FE04A8FDF7A4FF89
:1026A00082B20A2304A9A648FFF78CF805221DA9C7
:1026B0000A20FFF767FB9DF876009DF874209DF8CF
:1026C00075108DE807009DF877309DF87820DEA121
:1026D00004A8FDF749FE04A8FDF786FF82B20A238D
:1026E00004A99748FFF76EF805221DA90B20FFF7F4
:1026F00049FB9DF876009DF874209DF875108DE8D3
:1027000007009DF877309DF87820DBA104A8FDF73D
:102710002BFE04A8FDF768FF82B20A2304A98848AB
:10272000FFF750F801221DA90C20FFF72BFB9DF8A5
:102730007420DDA104A8FDF717FE04A8FDF754FFDF
:1027400082B20A2304A97E48FFF73CF801221DA9A2
:102750000D20FFF717FB9DF87420DDA104A8FDF7FD
:1027600003FE04A8FDF740FF82B20A2304A97448BF
:10277000FFF728F801221DA90E20FFF703FB9DF8A3
:102780007420DDA104A8FDF7EFFD04A8FDF72CFFE0
:1027900082B20A2304A96A48FFF714F801221DA98E
:1027A0000F20FFF7EFFA9DF87420DDA104A8FDF7D4
:1027B000DBFD04A8FDF718FF82B20A2304A96048D4
:1027C000FFF700F805221DA91020FFF7DBFA9DF89E
:1027D00076009DF874209DF875108DE807009DF82F
:1027E00077309DF87820D8A104A8FDF7BDFD04A896
:1027F000FDF7FAFE82B20A2304A95148FEF7E2FF70
:102800001120FFF79FFA00F03F02DAA104A8FDF7BC
:10281000ABFD04A8FDF7E8FE82B20A2304A94848EC
:10282000FEF7D0FF1220FFF78DFA00F03F02D8A18B
:1028300004A8FDF799FD04A8FDF7D6FE82B20A238D
:1028400004A93F48FEF7BEFF1320FFF77BFA00F014
:102850003F02D6A104A8FDF787FD04A8FDF7C4FE3A
:1028600082B20A2304A93648FEF7ACFF1420FFF712
:1028700069FA00F03F02D4A104A8FDF775FD04A891
:10288000FDF7B2FE82B20A2304A92D48FEF79AFF93
:102890001520FFF757FA00F03F02D2A104A8FDF778
:1028A00063FD04A8FDF7A0FE82B20A2304A9244810
:1028B000FEF788FF1620FFF745FA00F03F02D0A18F
:1028C00004A8FDF751FD04A8FDF78EFE82B20A238D
:1028D00004A91B48FEF776FF1C20FFF733FAC0F36C
:1028E0004014C0F30013C0F3C002C0F380018DE8B0
:1028F0001E0000F00102C0F34003C84904A8FDF720
:1029000033FD04A8FDF770FE82B289E10D0A2A2A80
:102910002A2A2A2A2A2A2A2A2A2A2A2A2A2A2A2A17
:102920002A2A2A2A2A2A2A2A2A2A2A2A2A2A2A2A07
:102930002A2A2A2A2A2A2A2A2A2A2A2A0D0A000088
:10294000A80000204352433A0D0A0909456E61620E
:102950006C65642C2032204279746573200D0A0066
:102960004352433A0D0A0909456E61626C65642C55
:1029700020312042797465200D0A00006C2D00087A
:10298000B02D000853455455505F41573A0D0A0980
:10299000092564206279746573200D0A0000000027
:1029A00052465F43483A0D0A0909256420434820EE
:1029B0000D0A00004461746120526174653A0D0A89
:1029C0000909324D627073200D0A00004352433AE8
:1029D0000D0A090944697361626C6564200D0A007F
:1029E0004461746120526174653A0D0A0909314DE0
:1029F000627073200D0A000052465F5057523A0D24
:102A00000A09092D31386442200D0A0052465F50F0
:102A100057523A0D0A09092D31326442200D0A003D
:102A200052465F5057523A0D0A09092D366442202A
:102A30000D0A000052465F5057523A0D0A090930FC
:102A40006442200D0A00000052585F5069706530E2
:102A50002041646472733A0D0A0909253032582CFA
:102A6000253032582C253032582C253032582C2520
:102A700030325820200D0A0052585F50697065317D
:102A80002041646472733A0D0A0909253032582CCA
:102A9000253032582C253032582C253032582C25F0
:102AA00030325820200D0A0052585F50697065324C
:102AB0002041646472733A0D0A090978782C787899
:102AC0002C78782C78782C2530325820200D0A006C
:102AD00052585F50697065332041646472733A0DD7
:102AE0000A090978782C78782C78782C78782C2535
:102AF00030325820200D0A0052585F5069706534FA
:102B00002041646472733A0D0A090978782C787848
:102B10002C78782C78782C2530325820200D0A001B
:102B200052585F50697065352041646472733A0D84
:102B30000A090978782C78782C78782C78782C25E4
:102B400030325820200D0A005458204164647273BA
:102B50003A0D0A0909253032582C253032582C25D7
:102B60003032582C253032582C2530325820200D48
:102B70000A00000052585F50575F50303A0D0A0962
:102B8000092564206279746573200D0A0000000035
:102B900052585F50575F50313A0D0A090925642099
:102BA0006279746573200D0A0000000052585F506E
:102BB000575F50323A0D0A0909256420627974651D
:102BC00073200D0A0000000052585F50575F5033C9
:102BD0003A0D0A09092564206279746573200D0A8B
:102BE0000000000052585F50575F50343A0D0A09F8
:102BF000092564206279746573200D0A00000000C5
:102C000052585F50575F50353A0D0A090925642024
:102C10006279746573200D0A00000000FC2D000825
:102C20000A2304A91C48FEF7CDFD1D20FFF78AF8F2
:102C30000446400701D519A100E01EA104A8FDF734
:102C400093FB04A8FDF7D0FC82B20A2304A9124822
:102C5000FEF7B8FDA00701D51CA100E022A104A841
:102C6000FDF782FB04A8FDF7BFFC82B20A2304A98A
:102C70000948FEF7A7FDAFF26C3104A8FDF774FB1D
:102C800004A8FDF7B1FC82B20A2304A90248FEF7AA
:102C900099FD20B010BD0000A8000020454E5F4403
:102CA000504C3A0D0A0909456E61626C6564200D4D
:102CB0000A000000454E5F44504C3A0D0A09094491
:102CC000697361626C6564200D0A0000454E5F41C6
:102CD000434B5F5041593A0D0A0909456E61626CD8
:102CE0006564200D0A000000454E5F41434B5F5074
:102CF00041593A0D0A090944697361626C6564209F
:102D00000D0A00004FF04070E1EE100A70471112FA
:102D1000131415160A0B0C0D0E0F10000000000006
:102D2000000000010203040607080900000000017A
:102D300002030430313233343536373839414243B7
:102D40004445464030580030313233343536373818
:102D500039616263646566403078000400000800F1
:102D6000000000000000020001000010454E41413B
:102D70003A0D0A090950303A0925640D0A0909502B
:102D8000313A0925640D0A090950323A0925640DC2
:102D90000A090950333A0925640D0A090950343AE1
:102DA0000925640D0A090950353A0925640D0A0000
:102DB000454E5F5258414444523A0D0A0909503079
:102DC0003A0925640D0A090950313A0925640D0AAA
:102DD000090950323A0925640D0A090950333A09A4
:102DE00025640D0A090950343A0925640D0A0909B8
:102DF00050353A0925640D0A0000000044594E5030
:102E0000445F706970653A0D0A090950303A092526
:102E1000640D0A090950313A0925640D0A0909505F
:102E2000323A0925640D0A090950333A0925640D1F
:102E30000A090950343A0925640D0A090950353A3E
:102E40000925640D0A000000682E0008000000201B
:102E500050000000C4010008B82E000850000020F7
:102E600010080000E0010008000000000000000061
:102E70000000000000000000000000000000000052
:102E8000AA4433221100000041636B206279205371
:102E9000544D333246312100000000000000000094
:102EA0000000000000000000010000001000000011
:082EB000000000000024F40002
:040000050800018965
:00000001FF
