:020000040800F2
:1000000020080020990100082F1700084F1600084B
:100010002D170008AF060008292000080000000086
:10002000000000000000000000000000A51E000805
:10003000B1060008000000006D1D0008A71E0008A2
:10004000B3010008B3010008B3010008B3010008C0
:10005000B3010008B3010008B3010008B3010008B0
:10006000B3010008B3010008B3010008B3010008A0
:10007000B3010008B3010008B3010008B301000890
:10008000B3010008B3010008B3010008B301000880
:10009000B3010008B3010008B3010008B301000870
:1000A000B3010008B3010008B3010008B301000860
:1000B000B3010008B3010008B3010008B301000850
:1000C000B3010008B3010008B3010008B301000840
:1000D000B3010008B3010008B3010008B301000830
:1000E000B3010008B3010008B301000800F002F8F2
:1000F00000F042F80AA090E8000C82448344AAF180
:100100000107DA4501D100F037F8AFF2090EBAE87D
:100110000F0013F0010F18BFFB1A43F0010318473B
:10012000C8290000E8290000103A24BF78C878C127
:10013000FAD8520724BF30C830C144BF04680C60ED
:10014000704700000023002400250026103A28BF35
:1001500078C1FBD8520728BF30C148BF0B60704739
:10016000642900F07580782900F0AE800020704787
:100170001FB51FBD10B510BD00F05FFA1146FFF7A7
:10018000F7FF01F069FF00F07DFA03B4FFF7F2FF1B
:1001900003BC00F085FA0000094880470948004781
:1001A000FEE7FEE7FEE7FEE7FEE7FEE7FEE7FEE727
:1001B000FEE7FEE704480549054A064B7047000084
:1001C000091F0008ED000008200200202008002080
:1001D00020040020200400200FB41CB5074B06AA01
:1001E0007B4469460090059800F00FFA00206946AC
:1001F00000F01EFA1CBC5DF814FB00004D0400006A
:1002000070B5044685690068C10601D5302600E056
:100210002026C00707D070BDD4E9012130469047A1
:10022000206A401C20626D1EF6D570BD70B5044674
:1002300085690078C00707D170BDD4E9012120206D
:100240009047206A401C20626D1EF6D570BD0000EC
:100250002DE9F0410646002410687529314616A59F
:1002600010D0AFF30080002802DA404213A507E067
:1002700031688A0701D512A502E0490704D511A506
:10028000012401E0AFF3008000210A2206F12407D7
:1002900009E0B0FBF2FCB0FBF2F302FB1C003030D3
:1002A00078541846491C0028F3D123462A46304684
:1002B000BDE8F04100F04BB9000000002D00000047
:1002C0002B0000002000000070B504460D462146BA
:1002D0001068AFF300802188090502D50F4A7A44DF
:1002E00002E00E4A7A440E32002104F1240305E0B4
:1002F00000F00F060009965D5E54491C0028F7D1F6
:1003000020780023000704D5702D02D009B1022304
:1003100011322046BDE8704000F019B9EF26000008
:100320002DE9F05F894604464FF0000ADFF824B15A
:10033000FB44C0F820A02046E168884700287DD013
:10034000252806D0D4E901219047206A401C20626C
:10035000F1E700255F462046E168884720280646E9
:1003600007DB312E05D2B81910F8200C08B105436F
:10037000F1E7A80701D525F00405C4F81CA0002763
:10038000C4F818A02A2E09D0304601F05EFE38B31A
:1003900004EB8708303EC8F8186019E059F8041BD0
:1003A000204604EB87029161E1688847012F0646E9
:1003B00018D1E069002820DA25F020051DE0D8F8E2
:1003C000180000EB800006EB40003038C8F8180039
:1003D0002046E1688847064601F037FE0028EED146
:1003E000012F0AD02E2E08D12046E16888477F1CB5
:1003F0000646022F45F02005C4DBA069002803DA79
:10040000404245F00105A061E80701D025F0100544
:10041000A6B1A6F14100192802D8203645F400659E
:100420004A463146204625604D46FFF799FE60B1A9
:10043000012807D0ED1D25F0070000E007E000F1DE
:10044000080978E705F1040975E730467AE7206A7C
:10045000BDE8F09FC526000010B5431C02E010F86F
:10046000011B71B18107FAD14FF0013202C88C1A19
:100470008C4314EAC211F9D0C01A0A0603D0C01E78
:1004800010BDC01A10BD0A0401D0801E10BD0902A3
:10049000FCD0401E10BD10B5203AC0F00B80B1E872
:1004A0001850203AA0E81850B1E81850A0E81850A9
:1004B000BFF4F5AF5FEA027C24BFB1E81850A0E8B2
:1004C000185044BF18C918C0BDE810405FEA827CCC
:1004D00024BF51F8043B40F8043B08BF7047D207E3
:1004E00028BF31F8023B48BF11F8012B28BF20F884
:1004F000023B48BF00F8012B70474FF0000200B5E7
:10050000134694469646203922BFA0E80C50A0E836
:100510000C50B1F12001BFF4F7AF090728BFA0E8E4
:100520000C5048BF0CC05DF804EB890028BF40F8B0
:10053000042B08BF704748BF20F8022B11F0804FF2
:1005400018BF00F8012B70477047704770472DE9BE
:10055000F0470D4699469246044600F1240801688A
:10056000880604D5E06921F01001216000E0012037
:10057000A84201DD471B00E00027A1697A1902EBC0
:100580000900081AA0612078C00602D42046FFF7AF
:1005900037FE002608E0D4E901211AF8060090474A
:1005A000206A401C761C20624E45F4DB2078C00691
:1005B0000AD52046FFF724FE06E0D4E901213020C9
:1005C0009047206A401C2062381EA7F10107F4DC26
:1005D00007E0D4E9012118F805009047206A401C83
:1005E0002062281EA5F10105F3DC2046FFF71EFE60
:1005F0002078000602D50220BDE8F0870120FBE745
:1006000001694A1C02610878704700B58FB0CDE9D6
:1006100001310021059105497944CDE903101146C6
:100620006846FFF77DFE0FB000BD0000E5FFFFFF4D
:100630000A6802F8010B0A607047754600F02CF852
:10064000AE4605006946534620F00700854618B0BF
:1006500020B5FFF7AFFDBDE820404FF000064FF09A
:1006600000074FF000084FF0000B21F00701AC46E7
:10067000ACE8C009ACE8C009ACE8C009ACE8C00906
:100680008D46704710B50446AFF300802046BDE8A4
:100690001040FFF77ABD000000487047BC01002001
:1006A00001491820ABBEFEE7260002007047FEE7B6
:1006B0007047000070B5044600F004F90546601C60
:1006C00002D004480078044400F0FCF8401BA0422B
:1006D000FAD370BD400000202DE9F84FDFF8B89143
:1006E000002409F1040A0AF1040B23460F270BF139
:1006F000040EC9E00125A5402A40AA427DD1674EDB
:10070000D1F804C0ACEB0608B44532D014DCBCF11F
:10071000030F3AD009DCBCF1000F2AD0BCF1010F65
:100720001CD0BCF1020F31D11DE0BCF1110F17D06C
:10073000BCF1120F2AD119E0B8F5881F19D006DCD8
:10074000B8F5803F15D0B8F5801F1FD111E0B8F57E
:10075000001F0ED0B8F5041F18D10AE0CB6815E0D1
:10076000CB681B1D12E0CB6808330FE0CB680C335D
:100770000CE08B682BB1012B4FF0080303D04561CF
:1007800004E0042302E0056100E00023FF2A01D811
:10079000064601E000F104064FEA840501D9A5F1FF
:1007A0002005D6F8008007FA05FC28EA0C0803FAB1
:1007B00005F548EA0508C6F800804D68ED0062D5E9
:1007C000374DAE6946F00106AE61AD6924F003060F
:1007D00005F001050095334D06EB050CDCF80850DB
:1007E000A607360F07FA06F825EA0805DFF8B880ED
:1007F000404503D14FF0000817E044E0DFF8AC803B
:10080000404502D14FF001080FE0DFF8A4804045D9
:1008100002D14FF0020808E0DFF89880404502D18D
:100820004FF0030801E04FF0040808FA06F848EA20
:100830000508CCF808804D68D9F80060ED034D46F6
:1008400001D5164300E096432E604D68DAF800604B
:10085000AD03554601D5164300E096432E604D6822
:10086000DBF80060ED025D4601D5164300E09643DB
:100870002E604D68DEF80060AD02754601D5164366
:1008800000E096432E60641C0D682A46E5407FF424
:1008900031AFBDE8F88F00000004014000001110E6
:1008A000001002400000014000080140000C01401F
:1008B00000100140001401400AB1016170470904B1
:1008C000FBE70000014880687047000040000020FE
:1008D000024881680278114481607047400000201E
:1008E000074810B5016841F010010160032000F0D5
:1008F00067F80F2000F006F800F024F8002010BD83
:100900000020024070B50D4D04464FF47A712878EE
:10091000B1FBF0F00A490968B1FBF0F000F0C1FD4D
:1009200048B9102C07D200222146501E00F028F8AA
:1009300000206C6070BD012070BD000040000020F0
:100940004C0000200C4808B5816941F0010181612B
:10095000816901F001010091C16941F08051C161DB
:10096000C06900F0805000900448416821F0E061C7
:1009700041F08061416008BD00100240000001406C
:10098000F0B40E4B1B680C46C3F30223C3F10705FA
:10099000042D00D90425191D072901D2002300E0E8
:1009A000DB1E012606FA05F1491E214099409E40B2
:1009B000761E16403143F0BC01F037BB0CED00E071
:1009C000064900F0070208684FF6FF03184040EAA6
:1009D0000220034A10430860704700000CED00E05D
:1009E0000000FA052DE9F0470F46050061D0434E9F
:1009F000306800F00700B84209D2306820F00700E4
:100A000038433060306800F00700B84251D12868A0
:100A10003B4C810712D5400703D5606840F4E06085
:100A200060602878000703D5606840F4605060601B
:100A30006068A96820F0F000084360602878C0076B
:100A400028D06868012810D02168022810D08907B2
:100A500000292EDA616821F0030101436160FFF78C
:100A600031FF804641F288390DE021688903EFE7C4
:100A70008901EDE7FFF726FFA0EB0801494502D900
:100A80000320BDE8F0876068696800F00C00B0EBF7
:100A9000810FEFD1306800F00700B8420BD9306801
:100AA00020F0070038433060306800F00700B8429B
:100AB00001D00120E5E72878400705D56068E9689E
:100AC00020F4E060084360602878000706D560687D
:100AD000296920F4605040EAC100606000F038F8F5
:100AE0006168084AC1F30311515CC84006490860B7
:100AF00006480068FFF706FF0020C2E7002002401A
:100B000000100240B92900084C00002044000020D9
:100B10000448054900684968044AC1F30221515C50
:100B2000C84070474C00002000100240C92900084E
:100B30000448054900684968044AC1F3C221515C70
:100B4000C84070474C00002000100240C92900082E
:100B500012A185B00FC98DE80F0014A0144A0068D7
:100B600004905168134801F00C03042B10D0082B9B
:100B70000ED1C1F38343C9031DF803000AD55168A0
:100B800004AAC1F34041515C0A4A5043B0FBF1F062
:100B900005B0704708494843FAE70000020304051E
:100BA000060708090A0B0C0D0E0F101001020000B9
:100BB0000010024000127A0000093D002DE9F84FB4
:100BC000040070D02078C04DC00749D06868C0F3D9
:100BD0008100012807D06868C0F38100022809D18C
:100BE0006868C00306D52868800339D56068002886
:100BF000E7D035E06068B0F5803F0BD010B1B0F5BC
:100C0000A02F11D0286820F480302860286820F4B4
:100C1000802002E0286840F480302860606890B14D
:100C2000FFF750FE06460AE0286840F4802028605E
:100C3000F0E700BFFFF746FE801B642873D82868E2
:100C40008003F7D50CE0FFF73DFE064605E000BF48
:100C5000FFF738FE801B6428F0D828688003F7D49B
:100C600020789A4E80074FF001094FF0000839D5DF
:100C7000686810F00C0F07D06868C0F38100022884
:100C800009D16868C00306D42868800714D5206994
:100C9000012808D110E02069B0B1C6F80090FFF734
:100CA00011FE074605E00AE1FFF70CFEC01B022813
:100CB000C4D828688007F7D52868616920F0F80053
:100CC00040EAC10028600DE0C6F80080FFF7FAFD99
:100CD000074604E0FFF7F6FDC01B022823D828686A
:100CE0008007F7D4207800072CD57948A169D9B1BD
:100CF000C0F80090FFF7E6FD074604E0FFF7E2FDCD
:100D0000C01B02280FD8686A8007F7D571484FF4D6
:100D1000FA510068B0FBF1F0009000BF0098411E4E
:100D20000091FAD20EE080E0C0F80080FFF7CAFD23
:100D3000074604E0FFF7C6FDC01B022875D8686AA5
:100D40008007F7D42078400760D5E8690027C00005
:100D500008D4E86940F08050E861E869012700F0B4
:100D6000805000905C480168C90513D4016883462F
:100D700041F480710160FFF7A5FD824606E000BFE7
:100D8000FFF7A0FDA0EB0A0064284ED8DBF80000B6
:100D9000C005F5D5E06801280AD008B1052813D0B0
:100DA000286A20F001002862286A20F0040002E08E
:100DB000286A40F001002862E06841F2883B98B15F
:100DC000FFF780FD82460BE0286A40F004002862AD
:100DD000EEE700BFFFF776FDA0EB0A0159455AD8B0
:100DE000286A8007F6D50CE0FFF76CFD824605E027
:100DF000FFF768FDA0EB0A0159454CD8286A800727
:100E0000F6D41FB1E86920F08050E861E06988B34A
:100E10006968C1F38101022944D00228C6F86080C4
:100E200004D0FFF74FFD044638E034E0FFF74AFDF9
:100E3000074604E0FFF746FDC01B02282BD82868B0
:100E40008001F7D4206AB0F5803F05D16868A168B9
:100E500020F4003008436860D4E908010843696859
:100E600021F4741108436860C6F86090FFF72AFD0A
:100E7000044606E025E000BFFFF724FD001B022822
:100E800009D828688001F7D51BE000BFFFF71AFDDD
:100E9000001B022802D90320BDE8F88F28688001D2
:100EA000F4D40EE00128F7D06868226A00F480319B
:100EB000914204D1616A00F47010884201D001208F
:100EC000EAE70020E8E7000000100240000042428C
:100ED000800442424C0000200070004070B50400C5
:100EE00009D0606A002540B125616561A56294F86A
:100EF000510040B10CE0012070BD6068B0F5827F08
:100F0000F4D0E561F2E784F85050204600F040F854
:100F1000022084F851002068016821F0400101603E
:100F2000A088218900F4827001F404410843A1895A
:100F300001F400610843217C01F002010843217D96
:100F400001F001010843218B01F400710843217F66
:100F500001F03801084394F8201001F080010843A3
:100F6000218D01F40051084321680860A069042123
:100F700001EA1040216848602068C16921F40061DD
:100F8000C1616565012084F85100002070BD00003A
:100F900030B585B000240094019402940394006855
:100FA0001449884223D11448816941F480518161F8
:100FB000816901F480510491816941F004018161EA
:100FC00080690E4D00F004000490A02000900220E3
:100FD00001900320039069462846FFF77DFB4020DF
:100FE000CDE90004694628460294FFF775FB05B079
:100FF00030BD0000003001400010024000080140F8
:101000002DE9F84F044640680025984616460F46DD
:101010004FF0040BB0F5827F01D1A06888B194F83D
:101020005000012818D0012084F85000FFF74AFC36
:10103000814694F851004FF0000A01280ED0022595
:1010400082E084F851B013460A462046CDF800806D
:1010500000F036F9BDE8F88F0220FBE7002F72D0D0
:10106000002E70D084F851B0C4F854A0A763A687AE
:10107000E687C4F830A0A4F834A0A4F836A0C4F8D9
:1010800040A0C4F844A0A068B0F5004F09D1206882
:10109000016821F0400101602068016821F480416D
:1010A000016020680168490603D4016841F04001ED
:1010B0000160E068D8B139E020688168C90709D0CB
:1010C000007BA16B0870A06B401CA063E08F401EEA
:1010D000E0870CE0FFF7F6FBA0EB0901414503D3E5
:1010E000B8F1FF3F03D036E0B8F1000F33D0E08F06
:1010F0000028E1D11DE020688168C90709D0C068D7
:10110000A16B0880A06B801CA063E08F401EE0876D
:101110000CE0FFF7D7FBA0EB0901414503D3B8F181
:10112000FF3F03D017E0B8F1000F14D0E08F002884
:10113000E1D14A464146204600F019FE08B1202080
:101140006065606D00B10125012084F8510084F8CC
:1011500050A028467EE70325F6E72DE9F84F044620
:1011600090F8500000271D461646894601280DD0EC
:101170004FF0010B84F850B0FFF7A4FB804694F8C1
:101180005100BA46012804D0022793E00220BDE8AE
:10119000F88FB9F1000F73D0002E71D0032084F8BE
:1011A0005100C4F854A0C4F83090A686E686C4F86E
:1011B00038A0A4F83CA0A4F83EA0C4F844A0C4F809
:1011C00040A0A068B0F5004F09D12068016821F067
:1011D000400101602068016841F48041016020689D
:1011E0000168490603D4016841F040010160E068EC
:1011F000B0F5006F606803D030B3012E24D041E019
:1012000008B1012E1CD1206B21680088C86006E05F
:1012100020688168890709D5216B0988C160206B26
:10122000801C2063E08E401EE08609E0FFF74AFB49
:10123000A0EB0800A84202D3681C01D031E07DB3C6
:10124000E08E0028E4D120E0206B2168007808734C
:1012500006E020688168890709D5216B0978017348
:10126000206B401C2063E08E401EE0860AE0FFF702
:1012700029FBA0EB0800A84203D3681C02D010E0B1
:1012800017E06DB1E08E0028E3D1424629462046A2
:1012900000F09BFD08B120206065A06818B106E051
:1012A000FFE7032706E02068C16880680090606D52
:1012B00000B1012784F851B084F850A0384666E7A1
:1012C0002DE9F84F044690F8500000270A9E1D466D
:1012D00092468B464FF0010901280ED0012084F878
:1012E0005000FFF7EFFA804694F85100616801283A
:1012F0000CD0B1F5827F07D102E00220BDE8F88F63
:10130000A16809B9042801D00227C2E0BBF1000F8F
:1013100027D0BAF1000F24D01DB394F8510004284F
:1013200002D0052084F8510000206065C4F838A080
:10133000E587A587C4F830B0E586A586206460649B
:1013400020680168490603D4016841F0400101604A
:10135000E068B0F5006F606805D0E8B3012D46D0B5
:101360007FE0012795E008B1012D39D1206B21687C
:101370000088C860206B801C2063E08E401EE086E1
:101380002EE02068816889070FD5E18E69B1B9F137
:10139000010F0AD1216B0988C160206B801C20637A
:1013A000E08E401EE0864FF0000920688168C90782
:1013B0000CD0E18F51B1C068A16B0880A06B801C7C
:1013C000A063E08F401EE0874FF00109FFF77AFA33
:1013D000A0EB0800B04200E009E001D3701C50D13E
:1013E000E08E0028CDD1E08F0028CAD13FE0206BED
:1013F000216800780873206B401C2063E08E401E3B
:10140000E0862EE02068816889070FD5E18E69B1FA
:10141000B9F1010F0AD1216B09780173206B401CCF
:101420002063E08E401EE0864FF00009206881684E
:10143000C9070CD0E18F51B1C068A16B0870A06BD7
:10144000401CA063E08F401EE0874FF00109FFF7CA
:1014500039FAA0EB0800B04202D3701C01D010E0B2
:101460007EB1E08E0028CDD1E08F0028CAD142465F
:101470003146204600F0A9FC28B1012720206065F4
:1014800007E0032705E0A06818B92068C1688068F4
:101490000090012084F85100002084F85000384664
:1014A0002CE710B5401EB0F1807F01D3012010BDA4
:1014B0004FF0E02460610F21601700F0B6FD0020BE
:1014C000A06107202061002010BD70B5040004D089
:1014D00094F83D00002510B106E0012070BD84F8AD
:1014E0003C50204600F022F8242084F83D0020687B
:1014F000C16821F40051C160204600F007FD20685A
:10150000016921F4904101612068416921F02A01BB
:1015100041612068C16841F40051C1602564202008
:1015200084F83D0084F83E00002070BD30B585B0E1
:1015300000240094019402940394006814498842A2
:1015400024D11448816941F480418161816901F4A9
:1015500080410491816941F00401816180690E4DEF
:1015600000F0040004904FF40070009002200190FD
:101570000320039069462846FFF7AEF82815CDE909
:101580000004694628460294FFF7A6F805B030BD6E
:101590000038014000100240000801402DE9F843E6
:1015A000044690F83D001F4616460D4620284CD1B3
:1015B000C5B1BEB194F83C00012846D0012084F8A2
:1015C0003C004FF00008C4F84080212084F83D0022
:1015D000FFF778F9A6848146E684A068B0F5805FBD
:1015E00003D004E00120BDE8F883206928B12E462D
:1015F0005FF0000584F83C800EE00026FAE78021C9
:10160000204600F0DFFCA0B9AEB116F8010B21684E
:101610004860E08C401EE084E08C4B464FF00002B6
:1016200000970028EBD14FF04001204600F0CAFCA3
:1016300030B10320D7E735F8020BC0F30800E6E726
:10164000202084F83D000020CDE70220CBE7FEE714
:101650002DE9F04186B000242048009401940294C2
:101660000394816941F010018161816901F01001E9
:101670000491816941F020018161816901F02001BB
:101680000491816941F0040181618069144F00F087
:1016900004004FF400550490002229463846FFF715
:1016A0000BF9DFF8408000220C214046FFF704F9D7
:1016B0000095022601250396CDE901546946384676
:1016C000FFF70AF80C20CDE90005CDE9024669468E
:1016D0004046FFF701F806B0BDE8F0810010024077
:1016E00000100140000801400F4810B50D4901608D
:1016F0004FF48271416000218160C1604FF400723B
:101700000161C0E905122022C0E90721416281621E
:101710000A21C162FFF7E2FB002801D072B6FEE7A2
:1017200010BD000000300140EC000020FEE7FEE7A5
:1017300008B5002000F00CF950208DF8000073204F
:101740008DF801006423022269460348FFF705FD76
:10175000012000F0FDF808BD500000200449054AB2
:101760000968B1FBF2F14143491EFDD27047000008
:101770004C000020C0C62D000020AFF3008070B5E3
:10178000054600F053F90446C0F380166EB115B15A
:10179000C4F3420028704021072000F0B1FAA006EF
:1017A00003D52021072000F0ABFA304670BD0000C1
:1017B0000FB47CB514460D460646582209A95D486B
:1017C000FEF769FE5C4B0120DE60DD801C8100F0CD
:1017D000BFF8002000F0B2F80520FEF76BFF0821EB
:1017E000002000F08DFA3F21012000F089FA03214A
:1017F000022000F085FA0321084600F081FA032157
:10180000042000F07DFA0221052000F079FA0F2172
:10181000062000F075FA0E21072000F071FA002171
:10182000082000F06DFA0021092000F069FAE72491
:101830008DF803408DF802408DF801408DF804408A
:101840008DF80040052269460A2000F071FAC22096
:101850008DF803008DF802008DF801008DF804006A
:101860008DF80000052269460B2000F061FAC321C3
:101870000C2000F045FAC4210D2000F041FAC521EA
:101880000E2000F03DFAC6210F2000F039FA8DF845
:1018900003408DF802408DF801408DF804408DF82A
:1018A000004005226946102000F042FA0021112074
:1018B00000F026FA0021122000F022FA0021132065
:1018C00000F01EFA0021142000F01AFA0021152061
:1018D00000F016FA0021162000F012FAFFF728FF98
:1018E00000211C2000F00CFA00211D2000F008FA55
:1018F00000F074FC0F21084600F0C0F9032000F04E
:1019000097F9012000F066F9022000F048F900F094
:1019100029F8202000F0AAF900F036F94C2000F058
:1019200052F900F07FF800F079F800F0AFF87CBCD5
:101930005DF814FB50000020000000200200034866
:101940000189C06800D00122FEF7B6BF0000002068
:1019500002000348C188C06800D00122FEF7ACBF76
:101960000000002010B51D2000F0D0F820F0040188
:101970001D2000F0C5F900211C2000F0C1F902492A
:101980000020C87010BD00000000002010B51D2010
:1019900000F0BCF840F006011D2000F0B1F91D2058
:1019A00000F0B4F848B9FFF7C3FE1D2000F0AEF810
:1019B00040F006011D2000F0A3F91C2000F0A6F85D
:1019C00040F00301BDE810401C2000F099B9000070
:1019D00010B51D2000F09AF840F004011D2000F021
:1019E0008FF91D2000F092F848B9FFF7A1FE1D20E5
:1019F00000F08CF840F004011D2000F081F91C205B
:101A000000F084F840F03F011C2000F079F9024911
:101A10000120C87010BD000000000020FF21E2205E
:101A200000F06EB9FF21E12000F06AB9072000F054
:101A30006DB800007FB504001248134D06D0062C87
:101A40001ED8022C07D2005D052206E0DDE9021255
:101A5000C5E90412F7E7005D012202A900F068F968
:101A60000848A978801F005D00F04AF9022000F0C4
:101A70004DF80121A1400843C1B2022000F040F915
:101A80007FBD0000B22900080000002010B5002032
:101A900000F03CF820F00201BDE81040002000F00A
:101AA0002FB910B500F010F8172000F02FF800F053
:101AB0000104FFF7B3FF602000F028F80CB101200B
:101AC00010BD002010BD000038B505460D488478D3
:101AD0008C4200D90C460020FFF73AFF61208DF8B8
:101AE00000006423012269460748FFF736FB6423A0
:101AF000224629460448FFF783FA0120FFF728FF12
:101B000038BD0000000000205000002038B5044619
:101B10000020FFF71DFF04F01F008DF80000642374
:101B2000012269460848FFF718FB64230122064892
:101B30000DF10101FFF764FA9DF801400120FFF764
:101B400007FF204638BD000050000020F8B50446CD
:101B500015460E460020FFF7FBFE04F01F008DF82F
:101B600000006423012269460648FFF7F6FA642361
:101B70002A4631460348FFF743FA0120FFF7E8FE03
:101B8000F8BD0000500000207021072000F0B8B818
:101B900008B13F2100E00021012000F0B1B810B5EC
:101BA00004460020FFF7B2FF20F00C011CB1012C0D
:101BB00006D041F00C01BDE81040002000F0A0B8B4
:101BC00041F00801F7E77F2800D37F200146052078
:101BD00000F096B82DE9F04107464FF000080620C6
:101BE000FFF794FF114D002620F028046E71022F9C
:101BF0000ED0012F10D06E712146062000F080F823
:101C00000620FFF783FFA0420BD14FF0010809E047
:101C10006E7144F02004EFE70120687144F008047D
:101C2000EAE76E714046BDE8F08100000000002048
:101C300010B504460620FFF769FF20F00601032CCB
:101C40000DD0022C05D0012C06D054B1042C06D0A6
:101C500007E041F0040104E041F0020101E041F03D
:101C60000601BDE81040062000F04AB8202800D345
:101C700020200149887070470000002000F00F000C
:101C800060F31F11042000F03BB8000010B50020E5
:101C9000FFF73CFF40F00301002000F031F80B4952
:101CA000D1E90401084305D00849052210310A2072
:101CB00000F03EF8FFF7B6FEFFF7B0FE0120FFF799
:101CC0003DFEBDE810409620FFF748BD0000002013
:101CD00070B506460C46202A00D320221546002067
:101CE000FFF736FE06F0070040F0A8002A4621461E
:101CF00000F01EF8BDE870400120FFF729BE00008B
:101D000038B505460C460020FFF722FE45F02000BE
:101D10008DF800008DF801406423022269460348D3
:101D2000FFF71BFA0120FFF713FE38BD500000201B
:101D3000F8B5044615460E460020FFF709FE44F0AC
:101D400020008DF800006423012269460648FFF751
:101D500004FA64232A4631460348FFF7FEF90120BE
:101D6000FFF7F6FDF8BD0000500000207047F8B501
:101D7000044640684FF48273984217D1A0684FF42C
:101D80008065B0F5004F01D0A8420FD120680668E9
:101D900026F0400606606068984207D1A068A84215
:101DA00004D100920B460022012103E000920B4671
:101DB00000228021204600F019F8002804D0606D30
:101DC00040F0200060650320F8BD38B50B46009256
:101DD00004460022802100F009F8002804D0606D3C
:101DE00040F020006065032038BD00002DE9F84375
:101DF0001E46914688460446089DFEF763FD401B3B
:101E0000351AFEF75FFD074625480068C0F3CB3062
:101E1000684338E0701C37D0FEF754FDC01BA84261
:101E200003D215B1009860B32CE02068416821F01E
:101E3000E00141606068B0F5827F0BD1A068B0F529
:101E4000004F02D0B0F5806F04D12068016821F006
:101E500040010160A06AB0F5005F09D12068016807
:101E600021F4005101602068016841F400510160D3
:101E7000012084F85100002084F850000320BDE8C0
:101E8000F8830025401E00902068816838EA010030
:101E900004D000214945BDD10020F0E70121F9E738
:101EA0004C0000207047FEF713BD30B58FB02821DD
:101EB0006846FEF722FB14210AA8FEF71EFB01214B
:101EC0000804CDE900100024029402250491CDE914
:101ED00007504FF4E01009906846FEF76FFE08B116
:101EE00072B6FEE70F20CDE90A054FF48060CDE918
:101EF0000C4002210AA80E94FEF774FD002801D0C0
:101F000072B6FEE70FB030BD7047000070B50446F2
:101F100000680169E26821F44051114301612169BF
:101F2000A0680843616908432168CA6841F20C63EC
:101F30009A430243CA6020684169A26921F4407152
:101F4000114341611E492068884202D1FEF7F0FD2D
:101F500001E0FEF7DDFD00EBC00101EB001260685F
:101F600064218000B2FBF0F3B3FBF1F36FF01806CD
:101F70007343B2FBF0F5B2FBF0F605EB83053223B9
:101F800003EB0515B5FBF1F5B6FBF1F605F0F00531
:101F900005EB0615B2FBF0F6B2FBF0F0B0FBF1F08A
:101FA0006FF01802504306EB800003EB0010B0FB0B
:101FB000F1F0216800F00F002844886070BD000037
:101FC000003801402DE9F041984617460E46044678
:101FD000069D1DE0681C1BD02DB1FEF773FCA0EB25
:101FE0000800A84214D92068C16821F4D071C160EA
:101FF0002068416921F001014161202084F83D0001
:1020000084F83E00002084F83C000320BDE8F08105
:102010002068006836EA000004D00020B842D9D019
:102020000020F3E70120F9E7FEE70907090E002881
:1020300004DB00F1E02080F80014704700F00F008E
:1020400000F1E02080F8141D704730380A2801D2D2
:102050000120704700207047ACB0FEF741FCFFF74D
:1020600024FFFFF7F5FAFFF73FFB534C51480C21D3
:1020700020604FF4E13060600020A060E060C4E9BF
:102080000401A061E0612046FFF71FFA08B172B6B3
:10209000FEE749493622583915A8FEF7FCF9464DA6
:1020A000583DE88EADF88A00A86B2390A88FADF854
:1020B0009000E88FADF89200112205F1400125A8AB
:1020C000FEF7E9F995F851008DF8A500686D2A90A2
:1020D000542216A96846FEF7DEF908220421374883
:1020E000159BFFF765FB262233490DA8FEF7D3F9B0
:1020F000E08CADF85A0005F18000016817918088E6
:10210000ADF86000E08DADF86200206B19900922F7
:1021100005F18C011AA8FEF7BEF994F83D008DF880
:10212000710094F83E008DF87200206C1D903422EE
:1021300011A96846FEF7AFF90DF1340C9CE80F00C9
:1021400000F040F800F04AF80120FFF721FD3420AC
:10215000FFF739FD2020FFF789FD1948D0E900235A
:102160000120FFF767FCFFF733FCFFF70FFCFFF7D9
:102170008DFD05F19C040D255FF00A06FFF7FCFAC2
:102180000028FBD00C4820214430FFF78AFC0C4982
:10219000202208310120FFF79BFD074984F82050D9
:1021A00084F821606423222244310348FFF7F6F9C2
:1021B000E4E700000038014044010020000801402D
:1021C000180000200FB4442210B502A90248FEF7FF
:1021D00062F910BC5DF814FBA800002010B5A0B097
:1021E000F4A104A8FDF7F8FF04A8FEF735F982B2C0
:1021F0000A2304A9FC48FFF7D1F90020FFF786FC69
:1022000001077AD5400701D5F8A100E0FEA104A896
:10221000FDF7E2FF04A8FEF71FF982B20A2304A922
:10222000F148FFF7BBF90120FFF770FCC0F3401441
:10223000C0F30013C0F3C002C0F380018DE81E009C
:1022400000F00102C0F34003F64904A8FDF7C4FF03
:1022500004A8FEF701F982B20A2304A9E248FFF7B5
:102260009DF90220FFF752FCC0F34014C0F30013A5
:10227000C0F3C002C0F380018DE81E0000F001022F
:10228000C0F34003E84904A8FDF7A6FF04A8FEF741
:10229000E3F882B20A2304A9D348FFF77FF90320A9
:1022A000FFF734FC00F00302E0A104A8921CFDF744
:1022B00093FF04A8FEF7D0F882B20A2304A9CA4803
:1022C000FFF76CF90520FFF721FC00F07F02DEA18B
:1022D00004A8FDF781FF04A8FEF7BEF882B20A2326
:1022E00004A9C148FFF75AF90620FFF70FFC04467E
:1022F000000704D5D9A103E0FFE7DEA187E7E2A14B
:1023000004A8FDF769FF04A8FEF7A6F882B20A2325
:1023100004A9B548FFF742F9032010EA540006D09B
:10232000012806D0022806D0032806D009E0DCA147
:1023300004E0E0A102E0E4A100E0E8A104A8FDF7C8
:102340004BFF04A8FEF788F882B20A2304A9A64826
:10235000FFF724F905221DA90A20FFF7F7FB9DF8D6
:1023600076009DF874209DF875108DE807009DF8A3
:1023700077309DF87820DEA104A8FDF72DFF04A892
:10238000FEF76AF882B20A2304A99748FFF706F914
:1023900005221DA90B20FFF7D9FB9DF876009DF8BB
:1023A00074209DF875108DE807009DF877309DF832
:1023B0007820DBA104A8FDF70FFF04A8FEF74CF876
:1023C00082B20A2304A98848FFF7E8F801221DA970
:1023D0000C20FFF7BBFB9DF87420DDA104A8FDF7DE
:1023E000FBFE04A8FEF738F882B20A2304A97E484F
:1023F000FFF7D4F801221DA90D20FFF7A7FB9DF8D8
:102400007420DDA104A8FDF7E7FE04A8FEF724F878
:1024100082B20A2304A97448FFF7C0F801221DA95B
:102420000E20FFF793FB9DF87420DDA104A8FDF7B3
:10243000D3FE04A8FEF710F882B20A2304A96A4862
:10244000FFF7ACF801221DA90F20FFF77FFB9DF8D5
:102450007420DDA104A8FDF7BFFE04A8FDF7FCFF72
:1024600082B20A2304A96048FFF798F805221DA943
:102470001020FFF76BFB9DF876009DF874209DF807
:1024800075108DE807009DF877309DF87820D8A169
:1024900004A8FDF7A1FE04A8FDF7DEFF82B20A231F
:1024A00004A95148FFF77AF81120FFF72FFB00F03D
:1024B0003F02DAA104A8FDF78FFE04A8FDF7CCFFC8
:1024C00082B20A2304A94848FFF768F81220FFF7F0
:1024D0001DFB00F03F02D8A104A8FDF77DFE04A873
:1024E000FDF7BAFF82B20A2304A93F48FFF756F866
:1024F0001320FFF70BFB00F03F02D6A104A8FDF765
:102500006BFE04A8FDF7A8FF82B20A2304A936488F
:10251000FFF744F81420FFF7F9FA00F03F02D4A1C6
:1025200004A8FDF759FE04A8FDF796FF82B20A231E
:1025300004A92D48FFF732F81520FFF7E7FA00F05D
:102540003F02D2A104A8FDF747FE04A8FDF784FFCF
:1025500082B20A2304A92448FFF720F81620FFF7C7
:10256000D5FA00F03F02D0A104A8FDF735FE04A87B
:10257000FDF772FF82B20A2304A91B48FFF70EF889
:102580001C20FFF7C3FAC0F34014C0F30013C0F3DC
:10259000C002C0F380018DE81E0000F00102C0F30C
:1025A0004003C84904A8FDF717FE04A8FDF754FF2F
:1025B00082B289E10D0A2A2A2A2A2A2A2A2A2A2AC2
:1025C0002A2A2A2A2A2A2A2A2A2A2A2A2A2A2A2A6B
:1025D0002A2A2A2A2A2A2A2A2A2A2A2A2A2A2A2A5B
:1025E0002A2A2A2A0D0A0000A80000204352433A52
:1025F0000D0A0909456E61626C65642C2032204227
:1026000079746573200D0A004352433A0D0A090993
:10261000456E61626C65642C2031204279746520BE
:102620000D0A00000C2A0008502A00085345545592
:10263000505F41573A0D0A09092564206279746593
:1026400073200D0A0000000052465F43483A0D0A0D
:1026500009092564204348200D0A00004461746183
:1026600020526174653A0D0A0909324D6270732077
:102670000D0A00004352433A0D0A09094469736187
:10268000626C6564200D0A004461746120526174BB
:10269000653A0D0A0909314D627073200D0A000078
:1026A00052465F5057523A0D0A09092D313864429B
:1026B000200D0A0052465F5057523A0D0A09092D63
:1026C00031326442200D0A0052465F5057523A0D93
:1026D0000A09092D366442200D0A000052465F5057
:1026E00057523A0D0A0909306442200D0A000000D1
:1026F00052585F50697065302041646472733A0DBE
:102700000A0909253032582C253032582C25303210
:10271000582C253032582C2530325820200D0A00F4
:1027200052585F50697065312041646472733A0D8C
:102730000A0909253032582C253032582C253032E0
:10274000582C253032582C2530325820200D0A00C4
:1027500052585F50697065322041646472733A0D5B
:102760000A090978782C78782C78782C78782C25B8
:1027700030325820200D0A0052585F50697065337E
:102780002041646472733A0D0A090978782C7878CC
:102790002C78782C78782C2530325820200D0A009F
:1027A00052585F50697065342041646472733A0D09
:1027B0000A090978782C78782C78782C78782C2568
:1027C00030325820200D0A0052585F50697065352C
:1027D0002041646472733A0D0A090978782C78787C
:1027E0002C78782C78782C2530325820200D0A004F
:1027F00054582041646472733A0D0A090925303235
:10280000582C253032582C253032582C253032584F
:102810002C2530325820200D0A00000052585F50FD
:10282000575F50303A0D0A090925642062797465B2
:1028300073200D0A0000000052585F50575F50315E
:102840003A0D0A09092564206279746573200D0A1E
:102850000000000052585F50575F50323A0D0A098D
:10286000092564206279746573200D0A0000000058
:1028700052585F50575F50333A0D0A0909256420BA
:102880006279746573200D0A0000000052585F5091
:10289000575F50343A0D0A0909256420627974653E
:1028A00073200D0A0000000052585F50575F5035EA
:1028B0003A0D0A09092564206279746573200D0AAE
:1028C000000000009C2A00080A2304A91C48FEF707
:1028D00065FE1D20FFF71AF90446400701D519A12E
:1028E00000E01EA104A8FDF777FC04A8FDF7B4FDE5
:1028F00082B20A2304A91248FEF750FEA00701D5B0
:102900001CA100E022A104A8FDF766FC04A8FDF7C5
:10291000A3FD82B20A2304A90948FEF73FFEAFF2E5
:102920006C3104A8FDF758FC04A8FDF795FD82B2B0
:102930000A2304A90248FEF731FE20B010BD0000B2
:10294000A8000020454E5F44504C3A0D0A09094545
:102950006E61626C6564200D0A000000454E5F44A4
:10296000504C3A0D0A090944697361626C65642030
:102970000D0A0000454E5F41434B5F5041593A0DEF
:102980000A0909456E61626C6564200D0A00000049
:10299000454E5F41434B5F5041593A0D0A09094486
:1029A000697361626C6564200D0A000011121314D2
:1029B00015160A0B0C0D0E0F100000000000000091
:1029C00000010203040607080900000000010203D9
:1029D0000430313233343536373839414243444597
:1029E000464030580030313233343536373839616B
:1029F00062636465664030780004000008000000EF
:102A0000000000000200010000100000454E41419E
:102A10003A0D0A090950303A0925640D0A0909508E
:102A2000313A0925640D0A090950323A0925640D25
:102A30000A090950333A0925640D0A090950343A44
:102A40000925640D0A090950353A0925640D0A0063
:102A5000454E5F5258414444523A0D0A09095030DC
:102A60003A0925640D0A090950313A0925640D0A0D
:102A7000090950323A0925640D0A090950333A0907
:102A800025640D0A090950343A0925640D0A09091B
:102A900050353A0925640D0A0000000044594E5093
:102AA000445F706970653A0D0A090950303A09258A
:102AB000640D0A090950313A0925640D0A090950C3
:102AC000323A0925640D0A090950333A0925640D83
:102AD0000A090950343A0925640D0A090950353AA2
:102AE0000925640D0A000000082B000800000020E2
:102AF0005000000028010008582B0008500000205A
:102B0000D0070000440100080000000000000000A1
:102B100000000000000000000000000000000000B5
:102B2000AA4433221100000041636B2062792053D4
:102B3000544D3332463121000000000000000000F7
:102B40000000000000000000010000001000000074
:082B5000000000000024F40065
:04000005080000ED02
:00000001FF
